:020000040020DA
:20200000007800208D22200007C2200005C2200005C2200005C2200005C2200000000000D4
:2020200000000000000000000000000005C2200005C220000000000005C22000A3C2200066
:20204000B5C22000BBC22000C1C22000C7C2200000000000A9C22000AFC2200005C22000FD
:2020600005C22000000000000000000000000000000000000000000005C220000000000092
:20208000000000000000000005C2200005C2200005C2200005C2200005C2200005C22000D6
:2020A00005C2200005C2200005C2200005C2200005C2200005C2200005C2200005C22000E8
:2020C00005C2200005C2200005C2200005C2200005C220000000000000000000000000007D
:2020E000000000000000000000000000000000000000000000000000A1362000B1362000E2
:202100000000000000000000000000000000000000000000000000000000000000000000BF
:2021200000000000000000000000000000000000000000000000000000000000000000009F
:2021400000000000000000000000000000000000000000000000000000000000000000007F
:2021600000000000000000000000000000000000000000000000000000000000000000005F
:2021800000000000000000000000000000000000000000000000000000000000000000003F
:2021A00000000000000000000000000000000000000000000000000000000000000000001F
:2021C0000000000000000000000000000000000000000000000000000000000000000000FF
:2021E0000000000000000000000000000000000000000000000000000000000000000000DF
:202200000000000000000000000000000000000000000000000000000000000000000000BE
:2022200000000000000000000000000000000000000000000000000000000000000000009E
:2022400000000000000000000000000000000000000000000000000000000000000000007E
:202260000000000000000000000000000000000005C2200085352000A9352000212C200032
:2022800021382000D527200005C2200008B5094BFF221A600848094A4824E369121A08493E
:2022A00098470848084AA369121A0021984703F0FFF8FEE7B4200D404040002098460020D7
:2022C00008DB200098460020FA6F002008B5002000F0DAFA012000F0D7FA0C49002000F08C
:2022E000A7FB03F0CFFD002003F098FE01F070F900F0BAFC00F0D6FC0821054801F0A4FA0D
:2023000062B6BDE80840042009F080BF415E2000DA6F002073B51D4B1B68022B08DD1C49AA
:202320001C4A1D4801F0CAFA1C491D4801F0C6FA6846082101F088FA1A4E9DF807309DF88F
:202340000650F46A43EA05254AF6CD310220A04729460320A0471A210120A0470822736B67
:2023600069460B20984709F089FF00F065F900210D4803F065FC0D4B01219B68812098470E
:20238000022009F043FF02B070BD00BF1C45002079D5200074D520007ED520008DD52000F5
:2023A000D9D7200078D4200040450020A0D320000022F0B51746154C0125FF2640FA02F3AA
:2023C000DB071ED504EB4203597814F8123061B1D908090301F1804103F0070301F55921B6
:2023E00005FA03F341F823700BE0D908090301F1804103F0070301F5592105FA03F341F8F6
:2024000023600132032AD9D1F0BD00BFB2D52000F0B5104C00210125FF2640FA01F3DB079F
:2024200014D504EB41035F7814F81130DA08120302F1804203F0070302F5592205FA03F34C
:2024400017B142F8236001E042F8237001310329E3D1F0BDB2D5200070B40E4E002201251B
:2024600016F812300C49D80800030C5803F0070305FA03F324EA03040C50203901440868FF
:2024800001320343032A0B60EAD170BC0720FFF7BFBF00BFB2D5200020940D4020B1012848
:2024A00005D1044B18787047034B186870470020704700BFB05F002020900D4010B5094A51
:2024C0000020137801331370074B197803F090FBBDE8104005490023054A0968054803F0D3
:2024E0000FB900BFB05F0020F26F0020D84A0020BD242000B04A0020812808B528D0B0F545
:20250000807F37D0802837D103F006FB1B4B1C4A18701368032123F00803136052F8203CE7
:20252000002023F0080342F8203C52F81C3C23F0080342F81C3C52F8183C43F0080342F85F
:20254000183C042200F014FB0E4803F0ADFC13E00D4B0E481A6829B142F008021A60012339
:20256000036005E022F008021A600123C0F88030084608BD064B1960012008BDF26F0020AD
:2025800020940D406844002010940D4000E100E0D84A002008B50F480AF056F9C8B108217B
:2025A0000C480AF045F90C4B196869B10B4B00221A700B4B1B6823B90A4A0B4803F0A0F8B4
:2025C00002E0094803F0C2F8BDE80840074803F0F7BC08BDD04A0020D84A0020B05F0020C9
:2025E00020900D40BD242000B04A0020A0D32000084A136823F00403136052F8203C43F0FD
:20260000040342F8203C044B00221A60034B01221A70704720C40D4010C00D40B15F002002
:20262000044B1868C0F30720030904BF1030C0B2704700BF1C300D4008B5FFF7F1FF014B72
:202640001B6808BD1C300D40F8B500F081F80F4B0024D3E900673A46B04238BF7A1C154688
:202660000443C3E90045DFF828E0DEE90001821B61EB070312196B41CEE9002303F034F9B7
:2026800018B1BDE8F84003F0B3B8F8BD98460020A04600200D4B0E4AE0215A600D4A82F841
:2026A0002310002207219A6019600B490B6843F001030B60094B1A60042243F80C2C012237
:2026C00043F8082C0F22DA62704700BF10E000E047E8010000ED00E008200D400C00034017
:2026E000034BD3E90023100A40EA0360704700BF98460020034BD3E90023D00B40EA4340DD
:20270000704700BFA0460020054B18601C3B1A6842F001021A601A68D207FCD4704700BF4C
:202720002800034010B5064C236823F001032360FFF78AFF236843F00103236010BD00BFA2
:2027400010E000E0014B1868704700BFDC4A0020074B084A196804331B681268120442EA86
:202760000323054A0B43106843EA0060704700BF40500D4048500D404C500D4010B5044661
:20278000104A1368DB07FCD572B6FFF7E1FF231A062BD8BFC41D0C4B220E1A60C4F30742CC
:2027A00043F8042CC4F3072243F8082CE2B243F80C2C62B6054B4FF400321C60044B1A6135
:2027C00010BD00BF50500D404C500D40DC4A002000E100E008B500F089FF074B00221A606D
:2027E000064B4FF40032C3F89021C3F89020BDE8084003F049BA00BFDC4A002000E100E093
:20280000064B1B681B075FBF054B186880F00800C0F3C00048BF0020704700BF18C0004034
:2028200018D00040164A2C2303FB00234FF6BF7270B5DC680546236C62649BB213F050027F
:202840000DD0104EA369DB0608D456F825301BB12068C0B29847F5E72368F3E770BD13F4B7
:20286000D06F0BD04FF440732363FF236360E36AE262E362236B43F00103236370BD00BFD0
:20288000B0D32000E04A002001282DE9F74F064600F2BD802C2545435E4B5C1994F9209017
:2028A0009846B9F1000FC0F2B28094F92230002BC0F2AD80584800F08FFF584A58F805306F
:2028C0001168E5680B4313605168636894F921A00B4353609168A36894F822700B4393603B
:2028E0000023C5F8C83F23690AEBC9021A6094F823305FFA87FB00939DF80030227D19461B
:202900005846019300F03EF9019B08221946584600F02EF97FB2424B3F039DF90020F9587D
:202920004FF0010E0EFA02F20A43FA504FEA093959F803100EFA0AF20A4349F803205022B0
:20294000AA63AA6B94F8240042F4D062AA6302226A634FF440722A63A2696A62E269AA628F
:202960007022EA6242B2002A1D4617DB94F925302C4943EAC2030B6094F8251012035359D0
:202980004CB20EFA04FE4EEA03035351002200F0EFF8254A136843F4004313602C2303FB30
:2029A000068393F826904FFA89F4002C1CDB93F827705FFA89F95FFA87FA01225146484645
:2029C000240300F0DFF87FB26359012202FA07F71F43082267515146484600F0C9F8124A89
:2029E000136843F4804313602C2303FB0686F268136B43F00103136396F828300122590926
:202A000003F01F0302FA03F3084A42F8213003B0BDE8F08FB0D320000128200028200D407A
:202A200020940D4004410D4030D0004000E100E001289CBF014B43F820107047E04A0020C6
:202A4000012808D8044B2C2202FB0030C3689A699206FCD419607047B0D32000014B0022CC
:202A60001A60704700500D40014B08221A60704700500D40024BA0221A6050221A60704718
:202A800000500D40014B024A9A60704700ED00E00020200038B5164D164C2B68012223F0C8
:202AA00040032B602368062123F040032360032000F05EF82B68012223F080032B602368F2
:202AC000072123F080032360032000F051F80A4A0A4B0B491A600A680A4B1340084A002B4B
:202AE000F9D113685901FCD413685B01FCD538BD20C40D4000C40D400101020000200D4017
:202B000004200D40000001012DE9F84304464FEA0438DFF83C9008F1804606F5592600F066
:202B2000E5FDD6F8187458F80930E50023FA05F447EA0400C0B2E4B2A840FFB2AC4003F020
:202B4000B9F9C6F81C7448F80940BDE8F88300BF18970D40034A044B1A60044B803A1A6078
:202B6000704700BF80400D40EC4A0020E84A0020034B01EBC0011B6843F82120704700BFBA
:202B8000EC4A0020034B01EBC0011B6843F82120704700BFE84A00200E2870B50BD1164B85
:202BA000164E1C6844F002051D60356825F03F0343F001033360124E336823F0FF031A434A
:202BC000114301430F4A316013681B06FCD50E4B0E4A1B6812680E2803F0FC0343EA0223DE
:202BE00008BF064A9BB204BF1560034A9BB208BF146018B270BD00BF34000144F486084073
:202C000008700D4000700D400C700D4010700D40024B1868B0FA80F04009704700B70840B6
:202C200010B5074B4FF40042064CC3F89021C3F89020206818B103F01BF80023236010BD05
:202C400000E100E0F04A0020064A136843F002031360536843F002035360936843F002030A
:202C60009360704748200D4007B50C4800F0B4FDFFF7EAFF0A4B1A6842F002021A600022BC
:202C80000192019A0F2A02DC019A0132F8E71A6822F002021A6003B05DF804FB112C2000CC
:202CA00054200D40064A136823F002031360536823F002035360936823F0020393607047BA
:202CC00048200D40084B93F90020002A09DB074AED2111601160E32111601A7862F07F0217
:202CE0001A700120704700BFB55F0020388808400C4A13689907FCD40A4B1B685B065FBFDF
:202D0000094BED221A601A60084B1B6813B1064BEF221A60064A0120137803F07F031370F2
:202D2000704700BF4C860840388808402C860840B55F002038B5A0F10B04E3B20F2B054626
:202D400013D80B4B1B6813F03F0302D0FFF7D0FF012304EB8404074A0B3414600BB1FFF782
:202D6000B1FF054BE8B21D7000E0FF2040B238BD488608403C8608409746002010B50B4B0E
:202D80001B68990603D1FFF79DFF012300E0002307490A68D207FCD5064A1468C4F3001481
:202DA0000BB1FFF7A5FF204610BD00BF48860840648608404C860840044B186800F0220088
:202DC000A0F1200358425841704700BF4C860840024B186800F04000704700BF4C860840EF
:202DE00038B50C46002900F08980102800F28880DFE800F0090F1A1C233942545970748686
:202E000086797B7D80003F4B1B68003318BF012371E03D4B05221B6803F07F030B3B93FB34
:202E2000F2F30B33DBB266E0384B00E0384B1A68043B1B6843EA02235DE000230B60354BD5
:202E4000354A1B6803F001030B601268900644BF43F002030B60314B1B78002B4CD00B688F
:202E600043F0040347E02E4B00201B780860002B42D001230B6038BD2A4B2B491A6800230E
:202E8000D2B201EBC3000079904203D8264A52F8333030E001330E2BF3D128E0234B1B6882
:202EA0005BB2493B27E0224B1B68990603D1FFF709FF012300E000231E490A68D207FCD56F
:202EC0001D4A1568493DEDB20BB1FFF711FF6DB2256011E0194B93F900300CE0184B1B7890
:202EE00003F07F0307E00B2305E01A2303E06FF0170300E007232360002038BD022038BD11
:202F0000012038BD2C8608403C860840CC850840D48508400086084024860840B45F00206A
:202F2000964600204086084008D4200058860840488608406486084060860840B35F0020BD
:202F4000B25F002038B505460C46134A13689B07FCD4124B93F90030002B01DBFFF7B2FEA6
:202F60000F4BEE221A60691E1A60A21C43F8102C2144022000F046FB013C0A492401214366
:202F8000022000F051FB022000F058FB022000F06DFB002038BD00BF4C860840B55F0020D2
:202FA0003888084002C001C0F8B5214B93F90030002B0DDBFFF7CCFB0546FFF783FE6FF0C0
:202FC0000904641BFFF7C4FBC442FBD4012600E00026184B1B7823B9174D2B68990604D46E
:202FE00005E0FFF7CBFE0028F6D10220F8BD134CE923236004272B689A0707D4013F17F0F8
:20300000FF0703D00620FFF77FFBF4E72B689B0704D4EE2323602360012403E02C6814F0A2
:203020000204FBD10EB1FFF763FE2046F8BD00BFB55F0020964600204C860840388808407C
:20304000214B1870002834D0204A13681B03FCD51F4B1A6842F002021A601A6842F0010229
:203060001A601A681A495007FBD50A6822F001020A601968164A4907FBD4116841F002012C
:203080001160116841F0010111601A685207FCD5104A136823F004031360D2F8A83123F0DE
:2030A0000403C2F8A8310C4B4FF40052C3F890207047084A136843F004031360064B4FF45A
:2030C00000521A61704700BFB45F002004200D40048808408C86084000E100E010B50C4603
:2030E000072861D8DFE800F0040E181C233F455B012902D1FFF7E6FD4BE0002958D1FFF720
:20310000F7FD46E0A1F10B030F2B51D8C8B2FFF711FE01303DD149E08CB2E2B2254B02E087
:203120008CB2254BE2B2240A1A605C6031E031F007033DD1214B11F0010F1A68C1F380006C
:2031400014BF42F0010222F001021A601C4B11F0020F1A6814BF42F0200222F020021A6008
:20316000FFF76EFF15E031F0010021D1154B197010BD01F118031F2B1AD813490D2351F80F
:203180003300DA00844206DC0F4B13441A790F4B1A60002010BD13F1FF33F0D2F9E7CCB21F
:2031A0000B4B49341C60F4E7012010BD032010BD022010BDC8850840D08508400086084018
:2031C000248608409646002008D4200040860840588608400B280DD1082A0DD161B1074B4C
:2031E000074A083111F8010D43F8040F9342F9D1002070470120704702207047A485084048
:20320000C485084070B5304E336813F0400308D02E4D2B68DCB21B0605D52D4BED221A6029
:203220001A60002070BD042CF7D9023C8C42F4DCE4B2032C21D001190139032000F0EAF9EB
:20324000631E24491B011943032000F0EDF9032000F0F4F9032000F009FA032000F012FADA
:203260000028FAD129681C4B4939C9B219702B681A4D18062B70D0D506E02B6803702B6806
:2032800043702B688370EDE749B289B2042003F0ABF92978032001F07F0103F0A5F9104B0F
:2032A0001B7873B933685A060BD5074B1B681B0603D50C4802F0DCFC03E0054BED221A60CC
:2032C0001A60204670BD00BF4C860840288808403888084002C0010CB35F0020B25F0020D6
:2032E000B45F002084440020F8B5294F3D7815F001054BD1274B01241C605C609C60A3F54F
:203300009323A3F51473F8221A600922C3F89021152270331A6003F59B230B2203F59E736D
:203320001A60A3F59B23A3F5F07340221A601A687F2642F020021A60D52243F81C5CDE6207
:20334000DA61154B1878FFF7F5FC144B4FF480421E60134B02201A6100F07CF9114902209D
:2033600000F058F9032000F075F90E49032000F049F90D4B1878FFF763FE29460B4802F0EC
:203380005FFC3B78204623433B70F8BD0020F8BDB55F0020A8200D40974600209486084076
:2033A00000E100E028880840B45F00208444002038B503880446CBB140F2F732934203D0F8
:2033C00000230380032038BD194B18781A4628B11B7873B1174B1B7858060AD5822908D195
:2033E000137843B1134B1A78520614D440F2F7332380012038BD03F0ADF803F03DF88021A8
:20340000FFF700FF0028EDDD80B203F019F80A4BDB689847E6E700221A70084B1D68FFF7D1
:2034200067FCFFF761FFAB06E0D0FFF74BFCDDE7B45F0020B55F0020E8D420004886084018
:203440000B282DE9F84F0E4610D1082A40F0828000297FD0414B424A4E1E53F8041D934206
:2034600006F8011FF9D10020BDE8F88F0C286ED1042A6FD100296DD03A4B3B481A68DFF870
:20348000F8C022F007021A600268DFF8F0A042F008020260DAF80040DCF800101A68DFF821
:2034A000E0E022F07002314F1A60DEF800203D68E4B2090244EA056401F47F4112042143CC
:2034C00002F47F020A432A490024D1F800805FFA88F544EA02081A68A94622F0070242F07C
:2034E00001021A60026842F008020260DAF80000DCF800201D68C0B225F0700545F01005B6
:203500001D60DEF800303D68120240EA056002F47F421B04024303F47F0313430A6844EA56
:20352000030A5FFA82FBFFF713F9B8EB0A0869EB0B094FEAC93105460E4A00234FEAC8305F
:2035400041EA584108F0D8FA281A30608BE70120BDE8F88F0220BDE8F88F00BFC8850840AA
:20356000A88508401088084004880840208808401C8808400048E801188808401488084049
:203580002488084008B5054B1B7813B9044802F06FFB044B00221A6008BD00BFB45F002081
:2035A0008444002034880840064B07481A68042A1FBF06490A7842F040020A7000221A6096
:2035C00002F056BB2C88084084440020B55F002010B5094C40220021204608F029FD074B5D
:2035E00001221A605C60064B4FF480425A604FF400425A6010BD00BF0040002004F00F40F4
:2036000000E100E003289EBF014B0001195070470040002003289EBF024B03EB0010416020
:20362000704700BF0040002003289EBF024B03EB00108160704700BF00400020032806D821
:20364000034901220B6802FA00F018430860704728F00F40032806D8034901220B6802FAD4
:2036600000F018430860704720F00F40032806D8034901220B6802FA00F018430860704730
:2036800014F00F4003289FBF044B03EB0010806800F0070088BF0020704700BF00400020E5
:2036A000024B4FF0FF321A60704700BF04F50F40014B01221A6070474CF00F40094A13681C
:2036C000084913F4801FFAD1074B1A6822F480321A600A68D203FCD41A6842F400321A6097
:2036E000704700BF04200D4000200D4010B50A4C23689A070FD009490B68084A13F0806F47
:20370000FAD113685B01FCD5FFF70CF8FFF7D6FF23680023236010BD58200D4004200D403D
:2037200038B5274B1C6814F03F0413D1254D55F8243023B1984768B10134052CF7D1224DFF
:203740002B783BB1FEF7FEFF0446FFF701F8201A092801D830BF38BD002CFBD01B4B1C48C6
:203760001A6822F400321A600268194912F4801FFAD11A6842F480321A600B68DB03FCD5C3
:20378000FEF7E6FF201A092803D8BDE83840FFF795BF63280F4C02D92B78022B00D001231D
:2037A000236002F01BFA20B1FFF788FF0023236038BDFEF7C7FF0028F6D02368CAE700BFF2
:2037C00048860840F44A0020B65F002000200D4004200D4058200D400749002351F823209E
:2037E000824207D01AB9044A42F8230070470133052BF3D1704700BFF44A0020054B00228B
:203800001A60054A136943F004031361034B02221A70704758200D4000ED00E0B65F00203B
:2038200010B5074B4FF48032064CC3F89021C3F89020206818B102F01BFA0023236010BD88
:2038400000E100E0084B002030B5184B1A78431E22B101F520112731154A1FE0154A127860
:20386000122AF6D1144A12784B2AF2D14A0802F12814B4F1281F04D014F8015D03F8015F1F
:20388000F7E701F52011273100231044934204DA11F80149C4540133F8E730BD914204D08F
:2038A00011F8010903F8010FF8E730BD2B002800270028002A002800290028000FB407B55A
:2038C00004AA52F8041B0448019200F035F803B05DF804EB04B07047944400201FB514464D
:2038E000074A8DE80300029221461A4602A8CDF80CD000F021F8009B00221A7004B010BD88
:203900008DC3200070B505460C46102C07D92B68102208496868984750B9103CF5E734B17E
:203920002B68224668680349BDE870401847204670BD00BF2ED620002DE9F04F064615464A
:203940008FB006914FF0000B069B1B78CBB1069C274617F8013B1BB1252B14D03C46F7E7DD
:20396000069BA3420DD0069B0699C3EB04084246336870689847002840F01F832378C34474
:2039800023B9584634E3069BA342ECD16378002BF7D039460024084610F8013B0A462B2BAB
:2039A00011D006D8202B11D0232B12D144F0080416E02D2B04D0302B0BD144F010040FE01B
:2039C00044F001040CE044F0060409E044F0020406E0A3F13107082F11D84FF0000801E067
:2039E0000146D8E70A4611F8013BA3F13000092813D80A2202FB0838A8F13008F2E72A2BE4
:203A000009D12B680246002B05F10405B8BF44F00104984601E04FF0000813782E2B1AD142
:203A20005178531CA1F1300009280ED8194600270A780B46A2F13000092801F101010DD84F
:203A40000A2303FB0727303FF2E72A2904D12F68931C043502E013464FF0FF371A786C2A46
:203A600009D15A786C2A02D144F080040AE0013344F060040BE0682A09D15A78682A03D134
:203A800044F02004023302E0013344F040041A78642A3CD01FD8462A48D00DD8252A5AD002
:203AA00003D8002A3FF46DAF57E0412A4AD0452A53D144F4424450E0582A31D004D8472AA5
:203AC0004BD144F4A13448E0612A38D0632A44D144F4A06441E06E2A3AD007D8662A22D000
:203AE00027D3672A28D0692A11D036E0732A2CD006D86F2A11D0702A2FD144F440742CE036
:203B0000752A07D0782A28D144F4C85425E044F4245422E044F410641FE044F488541CE0CE
:203B200044F4B24419E044F4007416E044F4844413E044F4024410E044F481340DE044F449
:203B4000C1340AE044F4E13407E044F4806404E044F4E06401E044F4C0640133069304F4D4
:203B6000E063B3F5806F00F08F8113D8B3F5807F27D0B3F5407F7FF4E7AEAE4B14F4804FA3
:203B8000AD4A18BF1A460DF133032868002104351F46B5E1B3F5C06F08D0B3F5E06F00F048
:203BA0002282B3F5A06F7FF4CFAEF2E133680122A24970689847002840F0FF810BF1010BA7
:203BC000C2E6002FACBF24F01004012714F40053079304F0E0032ED0402B12D005D8ABB103
:203BE000202B21D195F900200DE0602B0ED0802B1AD1073525F0070303F10805D3E90023B3
:203C000007E0B5F90020D317043502E02A680435D317002A73F1000108DA524263EB43039C
:203C2000CDE90023012304E000220023CDE900230023059329E0402B13D004D8BBB1202BE0
:203C40001DD12A780EE0602B11D0802B17D1073525F0070303F10805D3E90023CDE90023D3
:203C60000BE02A880023CDE90023043505E02B6800221946CDE900120435079BD9E70023F3
:203C8000059300220023CDE9002304F4C053B3F5805F0CD0B3F5C05F33D0B3F5006F4FD1FF
:203CA000DDE900230DF13609CDE9022304E0DDE900230DF1360915E0DDE9022313433AD0B9
:203CC000DDE902010A22002307F016FFDDE90201303209F8012D00230A2207F00DFFCDE95E
:203CE0000201E9E752EA030125D002F00701303109F8011DD10841EA4371D8080A46034611
:203D0000F0E74C4B14F4804F0DF136094A4918BF1946DDE9002352EA03000CD002F00F0053
:203D2000085C4FEA131E09F8010D100940EA037002467346EFE70DF13603C9EB030302E046
:203D40000DF1360900230293029B41F60802BB4238BFFF1A41F2080302EA040228BF002745
:203D60009A4202D1002F08BF012741F60801029B8A4203EB07000DD1DDE90023134309D0E2
:203D80002F4A304914F4804F4FF0020A0CBF0B46134602E04FF0000A5346079A9AB1059A4B
:203DA00052B904F00602022A0AD0062A264A04BF4FF0010A134606E04FF0010A234B02E070
:203DC000234B4FF0010A0AEB000290458CBFC2EB08084FF0000814F0010200920DD1E106B2
:203DE00002D54744904608E0414630460593FFF789FD059B002840F0E080BAF1000F07D0A9
:203E00003468524619467068A047002840F0D580029B03EB0B04BB46BBF1100F33681BD9AE
:203E200010220C4970689847002840F0C680ABF1100BF1E7F9D520000AD620002CD6200007
:203E40001ED620001BD6200023D6200021D620008BD52000E9D52000BBF1000F06D05A467E
:203E6000654970689847002840F0A7803368029A4946706854449847002840F09E80009B38
:203E80003C44002B39D032E0D5F800900435B9F1000F0AD0CA469AF800300AF101020BB1A7
:203EA0009246F8E7C9EB0A0A03E0DFF850914FF0060A002F02DBBA4528BFBA46D0458CBF47
:203EC000CAEB08084FF0000814F0010705D141463046FFF717FD00286FD1336852464946C3
:203EE00070689847002868D10AEB0B042FB141463046FFF707FD00285FD108EB040B23E56D
:203F000050EA010E0ED000F00F0E12F80EE04FEA111C03F801ED4FEA101E4EEA017E704652
:203F20006146EDE7FF1A02BF3022012703F8012C07F1030708BF03F1FF337822B84503F809
:203F4000012C4FF0300203F8022C88BFC7EB08084FF0230298BF4FF0000814F00104A3F1F2
:203F6000030903F8032C04D141463046FFF7CAFC18BB33683A46494670689847E8B95F4405
:203F800024B141463046FFF7BDFCB0B908EB070BDAE4B8F1010F2B688CBF08F1FF384FF06E
:203FA000000814F0010405F104058DF8203008D141463046FFF7A6FC10B14FF0FF3017E088
:203FC000C3443368012208A9706898470028F4D108F101072CB141463046FFF793FC00283F
:203FE000EBD1BB44B0E42B680435C3F800B0ABE40FB0BDE8F08F00BFE9D5200025D6200011
:2040000038B50C4C13460D4600220146204608F00FFB01F079F90146204600F0ADFD0446EA
:2040200001F072F9A2B201462846BDE8384001F077B900BF104B002070B506460A480D468D
:2040400008F013FC044664B1237FAB4201D02468F9E72A46314604F11D0007F0DDFE00283B
:20406000F5D1204670BD00BF0C4B0020F7B51D4603880446164613B16B2B2CD047E02D4A7D
:2040800003611268C36042602B4A13702B4A13602B4A137000F068FD3146288100F026FC1E
:2040A000A060E0B1274BC363A3681C64216921B130230022284608F026FBA668284606F181
:2040C000460100F059FDA6F84400A06800F03EFC6B2323801FE082291DD1E06818B900233A
:2040E0002380022023E0154F00230093124A394608F0F0FA22693B689A420ED1089BE0684D
:2041000098472369013323610B4B1B7853B90023238003200BE0012009E0094A1378013397
:204120001370F1E7064B1B78032BF0D8B2E703B0F0BD00BF544D0020B85F0020BC4B002073
:20414000B75F00203BC4200070B584680546ACB194F90830002B11DA236A7BB11A686AB120
:20416000074A127812B11B6A03B19847236A2846BDE870401A68002308F01ABB70BD00BFDB
:20418000B95F00202DE9F34706461248884691469A460A9F08F069FB0546A5B16C6884B1BD
:2041A000009753464A4641463046A047044640B1B379012B09D142463146002000F0C0FA25
:2041C00003E02D68E9E7284600E0204602B0BDE8F08700BFC04B00202DE9F04FA04D8BB0AE
:2041E00080462846039100F06DFE9E4E04463070C5F8A080002840F01881AB79013B032B6A
:2042000000F2ED804146288900F070FB0746002800F0DF802023ADF816306B7906940794A1
:2042200008941BB92B894522022104E000F09CFC0346452201218C4808F0FAF9AA7A1AB1E4
:204240008A49894808F007FA07AB009300220DF1160306A9824808F03DFA40B1BDF81630AF
:20426000202B28BF2023ADF81630079B0893BDF816A008AB07F1840900934A4653467A497F
:204280007748FFF77FFF002867D10AA941F8040D734808F0F2F98346754808F0E6FA044648
:2042A000002C4ED0606807F031FF8345024607D045DD237AD80642D5099B9B5C2F2B3ED126
:2042C0000999606807F050FF002838D1AB795A1E04D1D4F810B0BBF1000F16D10123934067
:2042E000990704D5D4F814B0BBF1000F0DD15A0704D5D4F818B0BBF1000F06D11B0717D5AE
:20430000D4F81CB0BBF1000F12D008AB00934A46534655495248D847237A5B0640F11481DE
:204320002046514A4E4900F00BFA01231C460DE085214D4808F089F90023012406E024680E
:20434000AEE78421484808F080F901231C4204D18421454808F079F92CE03378002B65D117
:20436000AB7D180700F1A880697D089AC91100F0B480079B3C4C9A4200F0C380013206994C
:20438000BDF8163040F0DE80B4F8A4209A4294BF00220122DFF8D090484608F0B4F9BDF891
:2043A0001620B4F8A430934204D94846D9F8A81008F0CBF93378002B38D107F146012A4832
:2043C00000F0DAFB80B2A7F8440078BBC12333702CE0A3233370274A274B1A6026E06B689E
:2043E00023F07F4323F0FF0313B9C323337006E06B79032B03D12989404600F085F928895B
:2044000000F0EEFA38B1C46B076C00F089FA14B113493846A0476B791149012B05D8CB7CB2
:204420005A0602D5404607F0D2FF002733780D4C33B9002F00F08A80384600F087FA85E063
:20444000C22B384602D100F06BFA7FE000F068FA2378C32B12D100232370032113E000BF20
:20446000CC4B0020C15F0020784C0020D74B0020C84B00204ED62000E8440020BF2B84BFAF
:20448000A0232370022132782B89324808F0D0F8314B1C68204607F039FE214602462D4853
:2044A00008F053F903992B4800F066FB039982B2404600F035FF49E0284B93F90620002A66
:2044C000FFF652AF9B7D19073FF54EAF244BA1221A70244A204B1A606CE7002A3FF46DAFA2
:2044E0001E4C013218BF01222023204608F00BF9B4F8A420D4F8A8101F2A88BF2022204654
:2045000056E7B4F8A4108A4204D38223A3710F221549F4E7BDF816308A1A9A4294BF002248
:2045200001220699204608F0EEF80799B4F8A430BDF816205B1AD4F8A8009A4228BF1A465E
:204540000144DCE7012225E70123F6E630780BB0BDE8F08FCC4B0020E8440020784C002036
:20456000C15F00205ED620003ED6200010B50446416001460D4808F095F994F90830002BB1
:2045800013DA216A89B10B6A7BB10B686BB1084808F088F9206A074B0461C36050F8082B91
:2045A0000023BDE8104008F003B910BDC84B0020C44B00204941200008B50C4B1A78A2B955
:2045C00001220B481A7008F04DF90A4808F04AF9094808F047F909490948FFF7C7FF00F038
:2045E00099FEBDE8084000F0B7BA08BDB95F0020C04B0020C84B0020C44B00206ED62000E8
:20460000C4440020014808F030B900BFC84B002010B504460146044808F096F92146BDE821
:204620001040024808F02BB99C440020244D002070B50646094808F018F9044600255CB12C
:20464000314604F1180008F099F818B12046FFF7DFFF01352468F2E7284670BD244D002083
:204660002DE9F041074611488846164608F0FDF804460025B4B1394604F1180008F07EF868
:2046800070B194F82C30B3420AD13246414604F12D0007F0C1FB18B92046FFF7B9FF013552
:2046A0002468E7E72846BDE8F08100BF244D00202DE9F04107461348884608F0D6F80446FF
:2046C0000025DCB11FB9261D464508D110E0394604F1180008F052F80028F4D10CE030469C
:2046E00007F014FD41460246304607F095FB18B92046FFF78DFF01352468E2E72846BDE88F
:20470000F08100BF244D0020F8B506460B480F4608F0ABF80446002574B1314604F1180084
:2047200008F02CF830B1E38EBB4203D12046FFF76FFF01352468EFE72846F8BD244D002024
:204740002DE9F84F8B791646012B5AD192F90630002B56DBCB7C5B0653D5D1F8A0A0BAF1A4
:20476000000F43D04F6E002F37D1D1F860B091F80A80CD6D01F10B0950465946FFF798FF35
:20478000214808F0CDF8044690B3132DA8BF13252A4659460430254407F070FB514604F1ED
:2047A00018002F7107F0DAFF4246494684F82C8004F12D0007F062FB21461448E78608F094
:2047C00071F8A16B30464B1CA36307F07CFFA36B23F07F43A363BDE8F88F012F11D18A7AE4
:2047E0005046BDE8F84F0B31FFF73ABFBDE8F88FA323B3713046BDE8F84F1022044907F01E
:20480000A4BFBDE8F88F00BF9C440020244D00207FD62000014801F02BBA00BFA84400205A
:2048200070B5038806462BB15D2B0AD000230380032070BD8021194807F0D4FF5D23338049
:2048400003E0882903D0822901D0012070BD00F0AFFD18B1124801F00BFAEFE700F08EFD21
:2048600004460D4654EA0503F4D0C9014FF47A720023E00141EA546107F03EF900234FF420
:20488000F0528B4208BF824204D350EA010302D1012000E010460146CDE700BF2C4D0020EC
:2048A000A844002070B5FDF71BFF0B4E0B493268821A0ED04FF47A73A2FB0323D40944EAFA
:2048C0004364DD09D1E90023A4185D41C1E900453060D1E9000170BD284D0020C8470020E9
:2048E0000021014801F0ACB9A844002070B5064609480D4608F014F8044658B10023868057
:2049000080F824302946263007F028FF2146034807F0C8FF204670BDB84400203C4D002020
:2049200010B5044660B1083000F01AFD2146054807F0A5FF2146BDE81040034808F004B86E
:2049400010BD00BF3C4D0020B84400202DE9F041044600F12607B0F8442000F14601384695
:2049600000F0DEFC94F84650C5F3011575BB94F82430032B1AD873B9184B2461E36007F0FF
:20498000A5FB40F2DD53B0FBF3F202FB130000F6B830206202E0236A5B002362226A04F145
:2049A00008000023BDE8F04107F002BFE66B3846D4F84080FFF73CFE2046FFF7B1FF56B1A0
:2049C000294640463346BDE8F04118472046BDE8F041FFF7A5BFBDE8F08100BF47C420009E
:2049E00010B50446044807F040FF20B18388A34201D00068F9E710BD3C4D00202DE9F84F79
:204A00000A9F8B4691461E46FFF7FCFD002480462546B8F1000F79D04DB13B689D4205D344
:204A2000B4423EBF2C2309F80430013401353B689D4205D3B4423EBF3C2309F8043001347E
:204A40003A686B1C934205D3B4423EBF2F2309F804300134D8F8040007F058FB02353B68D9
:204A600005EB000A9A4510D9D8F804205B1B711C002BACBFD318131C091B09EB0400344A33
:204A800007F098FC0444A64240D93B689A4505D3B4423EBF3E2309F804300134D8F80C301E
:204AA0000AF101053BB31B782BB33B689D4205D3B4423EBF3B2309F804300134D8F80C00A5
:204AC00007F024FB0AF1020A3B680AEB00059D4211D9CAEB030AD8F80C30711CBAF1000F3E
:204AE000A8BF5344091B09EB0400194A07F062FC0444A6420BD3B44203D93A682B1B934247
:204B000005D8404607F09DFC804682E74CB149462246584607F019FE2821584607F0A6FD52
:204B200009E045B18221584607F08FFD0F220949584607F00AFEB8F1000F04D14FF0FF33B4
:204B40003B60BDE8F88F3B681E443E60BDE8F88FA3D620003ED6200008B507F0B7FA014B41
:204B6000188008BDC0580020024B1888013080B218807047C0580020F7B50446012321602E
:204B8000037100230B700F46016800790A7842EA80120A70206862790178120102F03002FF
:204BA0000A430270A27A206802F00F0102780A4302702268A179517022892168120A8A70A8
:204BC00022682189D170A279002A00F07381224652F80A5B0435A17A8B4205D212F8011FFE
:204BE000013305F8011BF6E70121204607F035FC60B194F86A302A460093002104F16B031D
:204C0000012007F0C8FC0126054400E006460321204607F022FC48B1236C2A46009331467B
:204C2000636C032007F0B7FC032605440421204607F013FC58B194F824302A460093314672
:204C400004F12503042007F0A6FC042605440521204607F002FC38B12A463146002305206E
:204C600007F068FC052605440621204607F0F5FB38B12A463146636E062007F05BFC0626B0
:204C800005440721204607F0E8FB40B12A463146B4F85030072007F04DFC07260544082159
:204CA000204607F0DAFB58B12F230193A36C2A4600933146E36C082007F07DFC08260544EC
:204CC0000B21204607F0C9FB58B12F230193E36D2A4600933146236E0B2007F06CFC0B2682
:204CE00005440C21204607F0B8FB38B12A463146A38B0C2007F01EFC0C2605440E212046E3
:204D000007F0ABFB38B12A463146236A0E2007F011FC0E2605440F21204607F09EFB68B1AB
:204D200026230193D4F894302A4600933146D4F898300F2007F03FFC0F2605441121204681
:204D400007F08BFB40B12A463146B4F86830112007F0F0FB112605441421204607F07DFB1D
:204D600058B126230193636D2A4600933146A36D142007F020FC142605441721204607F094
:204D80006CFBE8B1636F94F878201B010AB143F00803B4F87A1000200909421C490892B2AD
:204DA00001D01046F9E7002A18BF024602F00F02134331462A46172007F0BCFB17260544F8
:204DC0001B21204607F049FBF0B1D4F8803094F884201B010AB143F00803B4F88610002032
:204DE0000909421C490892B201D01046F9E7002A18BF024602F00F02134331462A461B20E3
:204E000007F098FB1B2605441C21204607F025FB40B12A463146D4F88C301C2007F08AFBAC
:204E20001C2605442321204607F017FB48B1236B2A4600933146636B232007F0ACFB23263B
:204E400005442721204607F008FB48B1A36B2A4600933146E36B272007F09DFB2726054426
:204E60003C21204607F0F9FA38B12A46D4F8903031463C2007F05EFB05442368EB1A3E2B3B
:204E800011DCB4F8A43013B1FF2305F8013B2846B4F8A420D4F8A81007F066F8B4F8A4007F
:204EA000ED1B284407E0054A054B0025256028461A6000E0042003B0F0BD00BFACD62000A1
:204EC000E84400202DE9F74F0F46044600219246AC2207F0ADF8276097F800804FEA9818A9
:204EE00084F804803B78B8F1010FC3F3011363713A7802F00F02A2727B78A371B978FB7834
:204F000043EA0123238101D0A04A02E0082A03D99F4AA04B1A6034E13E1D314604F10B00BC
:204F200006F0ACFF0822002104F1130007F080F8A37A00251E4407EB0A094FF0100B4E4578
:204F400080F01D81317801F0F003F02B14D10136F71BC7EB0A0A1FFA8AFABAF1300F8ABFD7
:204F60003023A4F8A4A0A4F8A430B4F8A4300020C4F8A860F05405E14FEA111EBEF10D0FCD
:204F800001F00F0105D196F801E0B01C0EF10D0E0CE0BEF10E0F01BFB07896F801E000F2E4
:204FA0000D1000EB0E2E14BF701CF01C0D2903D110F8011B0D3108E00E2906D143780178AC
:204FC00003F20D1303EB012102304618B145C0F0D88075443C2D00F2D48004EBD50305F0FA
:204FE000070208FA02FEDA7C0E2D4EEA0202DA7464D027D8062D00F0A18017D8032D78D0AD
:205000000CD8012D40F0B3800A46082928BF0822014684F86A2004F16B0062E0042D51D048
:20502000052D40F0A48084F89C8088E7082D71D062D30B2D65D00C2D40F0998007F01BFA3D
:20504000A0837CE71B2D7DD025D8112D44D00BD80F2D40F08C802623009302460B4604F121
:20506000980004F194015DE0142D5ED0172D7ED107F001FAC0F3C00300F0070284F878304A
:205080000BFA02F3A4F87A3020F00F0393400009E367606753E7232D26D006D81C2D66D1E3
:2050A00007F0E9F9C4F88C0049E7272D1CD03C2D5DD107F0E0F9C4F8900040E707F0DBF9BA
:2050C00020623CE70A46082928BF0822014684F8242004F1250004E007F0CDF9A4F86800D3
:2050E0002DE706F0CBFE2AE72B4A2A4BA5201A6048E06064216422E707F0BDF9A4F8500090
:205100001DE72F23009302460B4604F1600004F15C0107E02F23009302460B4604F14C00C0
:2051200004F1480107F0B2F909E72623009302460B4604F1580004F15401F3E707F09BF92E
:205140006066FCE607F097F9C0F3C00300F0070284F884300BFA02F3A4F8863020F00F0313
:2051600093400009C4F88830C4F88000E7E6EB077FF5E5AE094A074B82201A6002E000201A
:2051800000E0802003B0BDE8F08F00BFDBD62000F2D62000E844002017D720003ED72000B1
:2051A000F8B5028805463AB140F2C3139A4211D0002303800320F8BD1146104602F090FC14
:2051C000174B186043F21633038240F2C3132B800120F8BD134B1B788B42F6D1124B1B78F4
:2051E0009B07F2D5114A124C164604F11007234603CBBB42106051601C4602F10802F6D1AA
:205200000C4B0D4A1B78094828339B5A33820023B3740A4B1A880A4B1968FEF7DDFFD4E754
:20522000404D0020F96F0020386D0020C2580020406800203361002038680020286800204E
:20524000446D00202DE9F3410E461746019000239E4204DDC25C5B2A04D00133F8E74FF044
:20526000FF3407E01D46425D5D2A06D00135AE42F9DC1C464FF0FF3500E01C460622214911
:2052800006F072FF002C80462EDDAC422CDA01983946204407F06AFF30B3019843195B782F
:2052A0003A2B18D100231A46023E761B0A2496420DD0511901448978A1F1300EBEF1090F22
:2052C00004D804FB03130132303BF0E7164616B15BBA3B8212E0B8F1000F0AD143F2164360
:2052E00001203B82B8740AE0394601A807F03EFF28B143F216333B820023BB74012002B025
:20530000BDE8F0817CD72000014B1868704700BF446D00200021014800F092BCEC440020F9
:2053200073B50E461446054610B94FF0FF340CE007F037FA0028F8D02B8A05480093224610
:205340002B463146006807F0ADFE204602B070BD404D0020014B5B68184700BFD0D4200078
:2053600010B50446FFF7F6FFC4E904012146BDE81040014807F083BA444D002010B50B48DF
:2053800007F073FA044658B1FFF7E4FFD4E90423994208BF904206D2101A63EB010110BD06
:2053A0004EF6602000E00020002110BD444D0020F8B5FFF7CFFF064614480F4607F055FAD6
:2053C000044608B90020F8BDD0E904239F4208BF9642F7D301460D4807F051FA63680BB15E
:2053E000204698470A4B9B689847084807F03DFA0028E7D0D0E90445FFF7ACFFA94208BF7F
:20540000A0422CBF01200020F8BD00BF444D0020D0D4200010B5074B1A7852B90122064870
:205420001A7007F01FFA054B1B6813B1BDE81040184710BDC25F0020444D0020D0D4200064
:20544000F7B5184B04461B780BB9FFF7E3FF164807F00BFA21460546134807F010FA124802
:2054600007F003FA002150B1D4E90467D0E904239F4208BF964203D301460068F3E71CB162
:205480002246094807F02AFA074807F0EEF9854206D0064B9B68019303B0BDE8F04018479F
:2054A00003B0F0BDC25F0020444D0020D0D4200038B5474C06F0D6FEFDF7ECF807F0B6F90E
:2054C00000F032FB0021434800F0BAFB00F0E2F8FDF7C4FA07F085F900F0EAFBFCF7F6FEB1
:2054E0002368022B07DD3C4A3C493D48FEF7E6F93C48FEF7E3F92368022B09DD3749364AB9
:205500003748FEF7DBF9384B38481968FEF7D6F92368022B09DD31492F4A3148FEF7CEF935
:20552000334B34481968FEF7C9F901F0A7F82368022B07DD284A29492948FEF7BFF92E4895
:20554000FEF7BCF92368022B02DD2C4800F040FA2368022B02DD2A48FEF7B0F9082227492B
:20556000284806F08BFC0021274800F069FB4FF0FF3002F019F823680546022B07DD164AA2
:2055800016491748FEF79AF92048FEF797F92368022B05DD0DB1A81C00E0284600F0C6F9BF
:2055A0002368022B02DD1648FEF788F9FCF7B2FE174807F00CF9FDF757FA00F0CDFA04463C
:2055C000FDF758FA14F0FF0FF7D106F055FEF4E71C4500200C4500208FD7200079D52000A1
:2055E0007ED5200094D7200000D52000C9D72000E8D42000D3D72000DDD72000DA6F002015
:20560000A5DA200030680020D8450020F1D7200060D52000F8B50388064615462BB14A2B89
:2056200015D0002303800320F8BD174807F01DF904462CB1A168201D07F0D4F82468F8E700
:20564000124B01221A704A2333800120F8BD8829FBD10D4807F009F90446002CF3D0231D06
:205660009D420ED12146084807F009F9084B62691F681A60A2691D460AB1E06990472F60C5
:20568000E1E72468E9E700BF484D0020C35F0020544D002010B5064B002406481C7007F064
:2056A000E1F82146BDE81040034800F0C9BA00BFC35F0020484D0020FC44002070B5044672
:2056C000E3610B4B049D1B786561A26143B1094D094B2E68201D2B6007F084F82E6000E056
:2056E000A1602146BDE87040044807F0DBB800BFC35F0020544D0020FC440020484D002040
:2057000013B5034C24680094FFF7D8FF02B010BD544D002070B5094B05461B783BB1084CAE
:20572000084B26680430236007F065F826602946BDE87040044807F0B5B800BFC35F002082
:20574000544D0020FC440020484D002010B5084B04461B781BB1043000F0CEF801E0C360C4
:2057600003612146BDE81040024807F088B800BFC35F0020484D002010B50A4B04461B783B
:2057800023B1BDE81040043007F03EB8064807F06CF818B1A04203D00068FAE7012010BDC1
:2057A000002010BDC35F0020484D002010B50E4C236813B90D4A136010BDFCF791FF2168EC
:2057C00091E80C001A44131A8A6842B192E812002144091A8B4228BF0B469268F5E7184489
:2057E000024B186010BD00BF4C4D0020504D0020014800F03DBA00BF0C4500202DE9F84331
:205800000388054633B1592B0BD0002303800320BDE8F883234A136059232B800120BDE8B9
:20582000F883872924D08229F6D11E4F4FF00008B9463C680026002CEED0204607F004F817
:2058400098B122468821E06800F0D2F958B9E060A3680EB1B36001E0C9F80030C4F80880A7
:20586000FFF7A4FFE5E7FFF7C3FF2646A468E2E70C4900200B681BB90028CDD00B60CBE72C
:20588000DC68A24202D19B680120F4E700B10B6099680029C0D0C86882420ABF89680B4639
:2058A0009960F5E74C4D002010B50446FFF7A0FFE3680B4A4BB113683BB1A34203D1094AA7
:2058C0001268DA6007E09B68F6E7064B1B68E36013681460A360BDE81040FFF767BF00BF74
:2058E0004C4D0020544D0020024B1868003018BF012070474C4D002010B50B4A04461368EA
:20590000834206D18368136008E09A68944203D01346002BF9D103E0A2689A60FFF746FF8A
:205920000023A360E36010BD4C4D0020F7B5054628B9224803B0BDE8F040FDF7BFBF0388B1
:20594000ABB94488ACB98388A3B9C4888CB9038983B94FF6FF72418991420AD1837B427B09
:20596000017BC07B00901648FDF7A8FF24E0002400E01C462646AB19AF5D5B7803EB072752
:20598000BFB24FB9002C09DB01D0013411E00D48FDF794FF01240CE0002C04DC2EB10A485D
:2059A000FDF78CFF01E04FF0FF3439460748FDF785FF0236102EDED103B0F0BD2FD8200023
:2059C0003ED8200051D8200052D8200054D8200038B5054608B1002409E00948BDE8384046
:2059E000FDF76CBFE30702D40648FDF767FF295D05480134FDF762FF082CF3D138BD00BF17
:205A000077D8200086D8200088D8200010B50446FCF770FE94E80C001344C01A024B9842C9
:205A20008CBF0020012010BDFEFFFF7F38B5836804460D469BB10A4804600220A07304F1F1
:205A40000C0098470238012801D9832D05D121462046BDE8384000F005B80123A37338BDD2
:205A6000544D00202DE9F8431C4A0446156889462B4690461A4E3768A34204D00BB11B68D2
:205A8000FAE7BDE8F88334B3A37BABB10023A37345B1A54204D022468721284606F0C0FE88
:205AA0002D68F5E7A3683BB14C4505D034602A46832104F10C009847D8F800309C4203D1DE
:205AC0002268064B05E0134623B11A689442FAD122681A603760BDE8F88300BF584D002077
:205AE000544D0020002370B51D46094A01261370084A146854B1E37B33B1A673E573002295
:205B000082212046FFF792FF2468F3E770BD00BFC65F0020584D0020024B1878421C1A70D4
:205B2000704700BFC75F0020064B8A221A70064A00231370054A1370054A1360054A1360D6
:205B4000704700BFC75F0020C45F0020C55F0020584D0020544D00202DE9F0411A4D2B782B
:205B60000BB1FFF7BFFF194C22783AB3184E0C213378184F5943781817F801800133476885
:205B8000806803F01F03013A3370227068B9124B1E689EB12B780BB1FFF7A4FF30463A4657
:205BA000414606F03DFE3668F3E7B8F1810F04BF012383733A46414606F032FE2B78207837
:205BC0001844BDE8F08100BFC65F0020C55F0020C45F00205C4D0020584D0020024A034BA0
:205BE00010781B7818447047C55F0020C65F0020F0B50B4E3378202B0FD00A4C0C252478F8
:205C0000094F1C4404F01F046C4301333D19A86039556A6033700020F0BD0120F0BD00BF1F
:205C2000C55F0020C45F00205C4D002038B5034C256806F0F5FD256038BD00BF544D002069
:205C400030B40A4C0A4625682B4683420CD00BB11B68FAE740B1012105608173206083810B
:205C6000812130BCFFF7E2BF30BC7047584D002038B1837B013B012B9FBF024A0123C37344
:205C800013707047C65F002010B5084C206858B100232360816843689847236823B1BDE8BE
:205CA00010401868FCF76ABD10BD00BFDC4E002082B0074B02AA42F8043DCD21934202D2E2
:205CC00003F8011BFAE70348002102B0FFF7B8BFFA6F00202045002038B5FCF7CBFE0D4C31
:205CE0000D4B22780C4DCD2A06D09C4207D20134F7E7AC4203D201342378CD2BF9D0FCF77B
:205D0000B9FEAC423DBF0448001B80B24FF6FF7038BD00BFFA6F00200078002070B5038810
:205D200005462BB1902B0BD000230380032070BD4FF4A061134806F055FD90232B8003E088
:205D4000104806F061FD08B9012070BDFFF7C4FF0D4C0E4B06461C1BA4B2A0420DD90C4B25
:205D60001B68002B09DD0B4A0B490C48FDF7A6FD224631460A48FDF7A1FD024806F03BFDC0
:205D8000DBE700BFE04E0020FA6F0020007800201C45002004D920000AD920007ED520001F
:205DA0000ED9200070B5058804466C2D09D07E2D30D0002D34D1FFF7AFFE1C4B18701C4B98
:205DC0001D601B4D2E461B4806F00AFE431C01D16C231DE00A28164A07D02B687E2BF2DCD9
:205DE0005A1C3260144AD054EDE713680025591C1160114A2846D5540C4B1978FFF7F8FEF9
:205E00000E4B2A4685211868FFF7F2FE20B97E23238009E0852907D1054B00221A60D0E77E
:205E200000230380032070BD012070BDF76F0020F84E0020F04E002049600020544D00204A
:205E40000D2810B5014615D00B4C23782BB90B4806F0B3FD48B9012306E00A2805D10748EB
:205E600006F0ABFD08B1002323700548FFF700FF012010BD002010BD48600020F04E0020D2
:205E80003045002008B505490548802206F08EFDBDE8084000210348FFF7D2BEC85F0020CC
:205EA000F04E0020304500200146014806F0FABCFC4E002038B50546064806F0D6FC0446B1
:205EC0003CB1A068284002D0636803B198472468F6E738BDFC4E0020014806F0C3BC00BFF0
:205EE000FC4E00202DE9F04106880546772E31D07E2E40D0002E4ED12B4CFFF70DFE26606B
:205F000026462A4B2A4FDFF8B0801870236857F823204AB1002108F80310936880209847D2
:205F2000336801333360F1E7224A1370772320E0214AD256002A12DB1B4A1368013313606D
:205F4000194B1C4A1B6812789A42F1DC1B4B1B68002BEBD0194A00231360134AEFE7144A68
:205F6000002052F82320114B1978FFF741FE30B97E232B8014E00D4B1B788B4210D10A4B3B
:205F80000D491A688B5C03F07F038B540B4A136801331360D0E7002303800320BDE8F081E1
:205FA0000120BDE8F08100BF004F0020F86F002074440020C9600020F36F0020044F0020DF
:205FC00010B40A4B0A491A780023934203DA51F82340A04208D107490748CA5C62F07F02EF
:205FE000CA5410BCFFF744BE0133EEE7C960002074440020F36F002040450020054A1368A4
:2060000043F004031360044B1B68906943EA002080B2704700700D4014700D4010B5184A1D
:20602000136823F00C031360164B01221A601A68012AFCD1144B08221A60E322C3F81422DF
:2060400003F505731946114A1368DB07FCD5104C102000232268013802F0010243EA02034F
:206060004FEA43039BB2F5D1002BF1D0094A180A03F0FE0310601360EF230B6010BD00BF4D
:2060800000700D40A8200D4024860840648608409C86084014700D4008B5044806F030FCA4
:2060A000BDE80840024806F02BBC00BF5C45002050450020014806F06BBC00BF50450020BD
:2060C00038B50E4806F02CFC0446A8B10C4806F027FC0546206028B92146084806F034FCC6
:2060E000284638BD00F0D0F905F19C01A5F8800005F1820000F054FA204638BD504500200E
:206100005C45002010B501460446074806F032FC48B12168054806F017FC2146BDE81040C1
:20612000014806F011BC10BD504500205C45002010B501460446094806F01CFC68B12468B6
:20614000B4F88010204600F015FA04F19C0104F18200BDE8104000F035BA10BD504500203F
:20616000431C1FBF034B0C229B6802FB003008BF002070476845002030B1054B9B68C01ABD
:20618000044B8010584370474FF0FF30704700BF68450020ABAAAAAA38B50D4D002818BF2E
:2061A00005460C4806F061FB044668B1211D284606F0BDFC20B12046BDE83840FFF7DCBF4B
:2061C000204606F09AFBEFE74FF0FF3038BD00BF6CD52000284F002008B5024606F026FCC1
:2061E0004AB1431C09D0064B1B5C106843FA00F000F0010008BD104608BD002008BD00BF8A
:20620000FA6000202DE9F8430646DFF85490002459F824508DB1AF687FB13046FFF7ACFF27
:206220000146284606F0F8FB014680462846FFF7D3FF012801D14046B8470134082CE7D1DC
:206240003046FFF799FF044B00221A543146BDE8F843024806F013BBFA600020284F0020E5
:20626000EC4F002010B5074A1368072B9FBF5C1C1460054A03609DBF816042F82300012049
:20628000002010BD0C500020EC4F002038B505460B4806F0EAFAFFF76FFF0146284606F0C6
:2062A000BBFB044601462846FFF796FF28B921462846BDE8384006F0E0BB204638BD00BF20
:2062C000284F00202DE9F8433B4D0646002918BF0D46284699469046FFF75EFF431C07468D
:2062E00033D1364806F01CFB044610BB4946404603F080FB00285BD0FFF74EFF471C014637
:2063000035D0FFF72DFF2E4B02465F5C78B3002F4CD05C544AE0002C44D0BB4242DB1046DA
:2063200006F0EBFA02466ABB002C41D02046FFF769FF2146234806F0B5FA2046FFF71CFF26
:2063400029460746201D06F0EFFB3946304606F063FB04467268002105F06AFE01232246ED
:206360003146194806F06DFB2046BDE8F883154806F07BFA002402462746DFF84490DFF83E
:206380004880D0E71046FFF7F7FE19F80030002BC5D118F800100029BDD0C80748BF01335B
:2063A0004910F8E713B114461F46B8E71446BDE70020BDE8F88300BF6CD520006845002058
:2063C000EA600020284F0020FA60002070B50A4604460D4600230146054806F032FB06460A
:2063E00000232A462146034806F02BFB304670BDFA600020EA6000200A46012301460148B1
:2064000006F01FBBEA6000200A4600230146014806F017BBEA60002010B507490B888342A0
:2064200008DB064C80B222880244181A08802280012010BD002010BD365E0020385E002064
:20644000014B1880704700BF365E00200048704710500020014B1888704700BF365E002099
:20646000034A044B10781B781844C0B2704700BF0A610020385E002008B5FFF7F1FF014BF1
:20648000184408BD1050002070B50D4D0D4C2A78238806461344802B0FDC0B4905F0EEFCCA
:2064A0002B781E44FFF7E8FF22880146304605F0E5FC28782388184470BD002070BD00BFDD
:2064C0000A610020365E00201050002008B5FFF7C7FF024B1B88184480B208BD365E00208D
:2064E00038B50146FFF7F2FF4318802B11DC0A4A013880B2541803B2002B04DBD55C01383A
:20650000E55480B2F7E7054B01201A781144197038BD002038BD00BF105000200A6100207D
:2065200038B5094D094C1A220021094805F080FD2946204606F0F8FA294604F10800BDE8D5
:20654000384006F0F1BA00BF6CD52000B06F0020C06F0020044A00231380044A1380044A41
:206560001370FFF7DDBF00BF385E0020365E00200A61002038B50C460546FFF7EBFF802C3C
:2065800028BF802422462946034805F077FC034B20461C8038BD00BF10500020365E0020AE
:2065A00010B50C461A22054905F068FC2046BDE810401022024905F061BC00BFC06F0020E9
:2065C000B06F002010B50C461A220146044805F055FC2146BDE810401022024805F04EBC79
:2065E000C06F0020B06F0020024B23F810100120704700BFC06F0020014B33F81000704761
:20660000C06F002008B5044B0D3803EBC00006F08BFA012008BD00BFB06F0020024B0D383B
:2066200003EBC000704700BFB06F00200149024806F07DBA6CD52000B86F002070B505461E
:206640000D480E4606F011F9044698B1012D08D1A3681BB9204606F050F9F5E73046984742
:2066600005E0002DF6D16368002BF3D098470028F0D070BD70BD00BF90500020054B10B593
:206680001B689847044B5B689847BDE81040034B5B68184778D42000E8D4200000D5200005
:2066A000084808B5FFF736F80748FFF7EFFD38B1037A01465B080372034806F0DEF9F6E7FE
:2066C00008BD00BF94660020744500200146014806F0EEB974450020F8B531F0020307461D
:2066E0000E46154631D10146184806F0E1F9044650B90346092239461448FFF7E3FD0446B0
:2067000018B306F02EFAA080FBF7EAFF237A20602B44102BA8BF1023022E18BFED012372AA
:20672000204614BFADB24FF4006506F008FA002814BF0A2219225543A388C2F1640101FBE8
:2067400003556423B5FBF3F5A580F8BD7445002038B505460420FFF74FFF294684B20F4873
:2067600006F0A6F9034658B9092229460B48FFF7A9FD024680B1C48006F0F3F9908038BDFD
:206780000A2224B25443B0F906105A2202FB0142642192FBF1F2C28038BD00BF7445002021
:2067A00010B50748FFF772FD044640B121460448FFF70CFE2146024806F05FF9F4E710BDCB
:2067C0007445002010B500210548FFF74BFDBDE810400023034A4FF4E1310348FEF790BF26
:2067E00074450020A166200094660020F8B5FBF777FF04460F4F00250D2007EB0516FFF76D
:206800000DFF314606F093F978B10720FFF7F4FE337B834201D00020F8BDB068201AB0F52B
:20682000206F8CBF00200120F8BD0135102DE3D1F1E700BF5451002070B5164E00240D202B
:20684000FFF7ECFE06EB041106F071F9114D611C10B910290C46F2D14C1E05EB0111A1F102
:2068600010063CB120391022304605F007FB013C3146F4E70720FFF7BFFE2873FBF730FFF8
:20688000A8600D20FFF7CAFEBDE870400146014806F04AB95451002030B591B0054600F001
:2068A00063F84FF6FF73984202D14FF0FF3052E040220021684605F0BBFB284B1A782AB9B5
:2068C00001221A70FFF79AFB254B18707DB10720FFF792FE58B9224C23780BB90123237018
:2068E00021780720FFF780FE237801332370FFF79DFE6A46C1B21B4806F0A4F9FFF796FECE
:2069000028B1FF238DF800308DF8013006E00E20FFF784FE0146684606F006F90D20FFF778
:206920007DFE014602A806F0FFF8FFF7A5FD0E90FFF790FD0F90684606F070FA04464DB150
:20694000FFF7CEFD0028B0D0FFF780FD0146684606F0ADFA204611B030BD00BF0C61002069
:206960000B610020F9652000014B1888704700BF944600202DE9F041012986B006460F4669
:20698000144640F3838003A906F0DBFA0A2203A904F1100005F072FA9DF811300BB1B51C4F
:2069A00002E0B378F51CA37602AA01A903A806F091F99DF81380B8F1000F23D0029B23B1DB
:2069C0006A7815F8023B03EB0223B8F1020FA38309D13049204606F0A7F86B78237015F8C7
:2069E000023B637014E0B8F1030F11D105F108021346611E13F8010DAB4201F8010FF9D145
:206A0000154605E02349204606F08EF8A4F81C809DF81580B8F1000F2BD0019B53B16A7851
:206A200015F8023B03EB0223029A9BB2E3831AB9A38301E0A38BE383B8F1020F0AD1154949
:206A400004F1080006F070F86B78237215F8023B637215E0B8F1030F12D105F10802134658
:206A6000E11D13F8010D9D4201F8010FF9D1154606E0084904F1080006F056F8A4F81E8040
:206A8000A81B3B1A8742E363A56300DA002006B0BDE8F0816CD52000014B1B6A184700BFB1
:206AA00078D42000014B5B6A184700BF78D4200007B5FFF7CFFC03281BD00F4B9B68984700
:206AC000002816DB0E20FFF7A9FD0C4906F02FF858B1FFF78BFE60B9FFF7AEFE084B9B68C8
:206AE000019303B05DF804EB1847FFF79FFD0028EFD103B05DF804FBDCD42000DA6F0020F2
:206B000000D5200070B590F82D400122012CD4BF03340524054602FA04F4FFF76FFA013C48
:206B2000B0FBF4F12B4601FB1401034A05F10C00BDE87040FEF7E4BDC16B20002DE9F04770
:206B40000D4614468B68804693E8C000506B92F82C9005F094FE6868FFF7D4FAA96814480B
:206B600005F0F2FE2946134805F0EEFE606B05F07CFE40B1002384F82C3084F82D30204620
:206B8000FFF7C0FF0BE004F10C00FEF7DFFD2146094805F074FE2146084805F0D5FE4B4654
:206BA000424639463046BDE8F04705F0FABF00BF8445002090450020B45200209C4500200A
:206BC0002DE9F043044685B0002800F0DE80406B05F04BFE002800F0D8804068FFF7A8FADE
:206BE0006B490D20FFF70EFD01210820FFF7FCFC684B5B689847002879DBFFF727FC664EDD
:206C000085787768FFF722FC8046FFF75FFC01464046B847FFF70AFDD6F818800746C047EA
:206C200000284FD15FB1B3680193FFF74FFC019B984748B102280CBF0125042543E0F369D5
:206C4000984700283ED1EEE70FB100253BE0FBF77FFD8146FBF70EFF6FF00C07C9EB0707E1
:206C6000FBF776FDC742FBD4C04748B1FBF770FD80466FF01407FBF7FDFEC8EB070709E0A1
:206C8000F36998470028F1D1434B5B6998470028ECD015E0FBF75CFDC742FBD4F369984767
:206CA00070B13D4B032103A81B699847032809D19DF80E305D1B18BF0125002DC5D002E008
:206CC000022500E00125606B05F0CFFD064600285BD00721706805F099FE07460720FFF766
:206CE0008BFC874205D0304605F007FEEEE70525E9E7B268002A48D0032D42D8DFE805F0CE
:206D000002200E45032384F82D3094F82C302246013384F82C30314600200EE0002384F87F
:206D20002D3094F82C300133DBB284F82C30127A9A421FD8224631460220FFF7FFFE24E01E
:206D400094F82D300133DBB2052B83BF002384F82D3094F82C3084F82D3084BF013384F867
:206D60002C3094F82C10137A994203D3224631460120E2E72046FFF7C5FE706805F040FEBE
:206D800003E0224631462846D7E705B0BDE8F083DA6F0020DCD4200078D420002DE9F0414C
:206DA00007460E208846FFF739FC464B05461A78454C22B901221A70FFF720F9207023789E
:206DC00013B9414B01221A70217807204B1C2370FFF70AFC01210C20FFF706FC3B4805F03A
:206DE00044FD044640B12946201D05F0A0FEE0B9204605F082FDF4E7354805F091FD044640
:206E000048B32946201D05F08FFE002304F130000322606384F82C3084F82D20236305F0FD
:206E200021FD2146294805F03DFD606B05F04FFD072810DC274805F073FD054698B9606BCB
:206E400005F045FD38B92146204805F018FD21461F4805F079FD41463846BDE8F0410123F9
:206E6000042205F09EBE1C4805F05AFDA86008B3FFF726F96860C8B10620AE68FFF7BCFBE9
:206E8000C0B208B1307201E00823337286E880012946606B05F006FD606B05F0E6FC8542EA
:206EA0000DD12046BDE8F041FFF72CBEA9680A4805F04AFD2946074805F046FDBFE7BDE8F8
:206EC000F08100BF206100200F610020B45200209C450020904500208445002008B5064841
:206EE00005F00EFD054805F00BFD054805F008FDBDE80840FFF7D0B89045002084450020B8
:206F00009C45002005289ABF024B33F810000020704700BF3A5E002010B5044C0C220021B0
:206F2000204605F085F80023238110BD3A5E00202DE9FF47234C244D04F108030FCB8DE8A2
:206F40000F002B786F4694F80780BBB11F493A22A2710A88D21A92B20A80A2F12801081252
:206F6000207103F128002044C3F1040361712C3A011D184404F0F8FF00232B70144805F099
:206F800074FC0646DFF844A09EB1D6F80490B9F1000F09D0BAF800302A782C3B22449BB299
:206FA000383241463846C847304605F0A6FC0646EAE7064B2E701E80FFF7AEFF04B0BDE8A0
:206FC000F08700BF38680020336100202868002088530020F8B52C4B2C4C1B7904F1180619
:206FE000E371237E04F10805FF2B08D195E80F0086E80F003146284600F0C4FB1BE02F468A
:20700000B646234A3B4603CB7345106051601F4602F10802F6D196E80F0085E80F001C4B46
:207020001C4D03F110062A4618685968083303C2B3421546F7D1184D2B78BBB117493A22E4
:20704000A2710A88D21A92B20A80A2F128010812207103F128002044C3F1040361712C3AF7
:20706000011D184404F080FF00232B702B7881222833E518E25400236B706B8006F05BF85F
:20708000C0436880F8BD00BFBC66002038680020465E00205068002033610020286800208F
:2070A00038B504460B480D4605F0DFFB50B10379A34204D143799D4206D0FF2B04D005F089
:2070C0001CFCF3E7012038BD8368002BFAD09847002038BD8C5300200146014805F0E2BBB3
:2070E0008C5300202DE9F74F4A4D81462B7888469246494C63B12833E35C3A2B0FD1474A75
:20710000002313802B7003B0BDE8F04FFFF704BFA3793A2B03D194F92830002BEFDA404B15
:20712000404E1B6B9847404A3746934606F1100E334603CB7345106051601E4602F10802E6
:20714000F6D1364E2878338830339BB2B3F5A06F88BF4FF4A063338032882F4B121A04EB93
:2071600040001946303A3030019304F0FDFE602229782270002262706280019B3A2211B1DE
:2071800083F8282000E09A71284A234B1279E271228972B95A8962B99A8952B9DA8942B923
:2071A0001A8A32B95A8A22B99A8A12B9DB8A002BA5D01F4B0FCB87E80F009BF80030FF2BDE
:2071C00005D1B9F1040F9AD1B8F1020F97D11649174800F0D7FA2F78504607F12803E218B6
:2071E00004F8039082F8018005F0ABFF33882C37283BE0511A1263712B78227128331C44C3
:207200000023638005F097FFC043608003B0BDE8F08F00BF33610020386800202868002040
:2072200010D5200050680020465E0020BC660020406800202DE9F8431D4689469046174CE7
:20724000602323703A23A371154B04F118061B790027E3712B1D1A1222710146102230462F
:2072600063716770678004F009FE314604F1080000F088FA0B4B2C351B7828331E1903F8C4
:20728000049086F80180778005F055FFC043064B70801D80BDE8F84300F048BC38680020A6
:2072A000BC660020336100202868002008B50448FFF712FFBDE808400248FFF70DBF00BF60
:2072C000A8450020B44500201FB50C46074B01469B696846984710222146684604F09CFD64
:2072E000B0FA80F0400904B010BD00BF10D5200070B506460A480D4605F0B7FA044668B1C7
:207300001DB9204605F0F9FAF8E7A3689E42F8D129462046FFF7D8FF0028F2D0204670BD97
:207320001455002030B505460C460E4B85B05B696846984721462846FFF7DAFF69460446C6
:207340002846FFF7D5FF11232CB1844205D0013B03D06469F8E7204602E0031B58425841F5
:2073600005B030BD10D520002DE9F843904606460F469946FFF7BCFF414604463046FFF7D1
:20738000B7FF0546B8F1000F0CD058B902464FF0FF3341463046FFF7E7FF054610B9002081
:2073A000BDE8F8837CB9164805F0BAFA04460028F5D0002343610146124805F073FA124A14
:2073C0001368013313600822B918A660C4F8049004F10C0004F052FD39463046FFF7A2FF6A
:2073E00050B1D4F81480394665613046FFF79AFF18B9C4F8148000E065612046BDE8F88395
:20740000C0450020145500209053002008B5054B002205481A6005F073FABDE8084003482B
:2074200005F020BA90530020C045002014550020F8B50546154805F018FA0446144E24B3ED
:20744000204605F05AFA63680746ABB90F4805F00CFA28B143699C4202D005F04EFAF8E75E
:2074600021460A4805F00BFA21460A4805F06CFA3368013B336006E05A1C04D0AB428CBF73
:207480005B1B002363603C46D9E7F8BD1455002090530020C045002070B50C4805F0E5F99C
:2074A00004460B4D84B1204605F027FA06462146064805F0E4F92146064805F045FA2B682A
:2074C0003446013B2B60EDE770BD00BF1455002090530020C04500202DE9F341154D0091BD
:2074E00004460E4690461F460195034620220321114805F076FD01282B4616D12A6804F1A5
:207500001001107020462A68023250F8044B884242F8044BF9D11868089B86744361099B95
:2075200080F813800777836100E0002002B0BDE8F08100BF1C550020B867002070B5064616
:207540000C4B0D4C03F1600523602068A8420FD203781BB9236820332360F6E7827C31464A
:20756000D208023004F058FC0028F3D1012070BD002070BDB86700201C55002013B5084C44
:20758000802300930194034620220321054805F028FD08B9206800E0002002B010BD00BF83
:2075A00020550020D466002030B548F2FE040C4B0C4A03F16001136013688B420CD21D788B
:2075C0003DB1451C02D09D7C854202D15D88A54203D020331360EFE70023184630BD00BF6F
:2075E000D46600202055002037B5104D80230093044603460195122205210D4805F0F1FC63
:2076000001282B460ED12A6804F11001107020462A68023250F8044B884242F8044BF9D1F9
:20762000186800E0002003B030BD00BF1855002058670020F7B5214C80230093054603461C
:207640000E4617460194202203211D4805F0C9FC012830D12A46236805F110011870236820
:20766000023352F8040B8A4243F8040BF9D12068C77416B90123037505E000230375314677
:20768000183005F0C6F823680E480121997402234370FF220023027043808380C3800381C4
:2076A0008372C17202736B7B4373EB89C381FFF79BFF206800E0002003B0F0BD20550020CC
:2076C000D4660020565E002013B5084C802300930194034612220521054805F082FC08B971
:2076E000206800E0002002B010BD00BF185500205867002038B50546C8B10D48022200240A
:207700004270FF230122C27244808480C4800481847203730370EB7B43732B8AC381FFF7C3
:20772000D3FF044A106008B105F083FC2C7038BD565E00201855002070B50F4C0F4B264654
:20774000236003F160052068A8420ED2037843B1037D33B91830FEF759F910B13068FFF742
:20776000C9FF236820332360EDE700F081F9BDE87040034805F03FB820550020D466002027
:20778000186800202DE9F84F48F2FE030A8805469A420F4623D00A78FF2A20D01C4900248C
:2077A000A04689469B461B4A0A6002F1600AD9F80060564517D233786BB1B37C012B0AD155
:2077C00073885B4507D0B11C384605F04CFC80459CBF344680462036C9F80060E7E70120E9
:2077E000FFF7E2FE04464CB92C806C80AC80EC802C816C81AC81EC81BDE8F88FA31C1234CF
:2078000053F8042BA34245F8042BF9D1BDE8F88F20550020D466002070B5094EB0684508D7
:20782000FEF7ECFB0446FEF7E9FB2402B268A4B22044B0FBF2F302FB1300284470BD00BF57
:20784000BC66002073B5304C00F0E4FD00F084F8602200212D4804F0EBFB0021F822204672
:2078600004F0E6FB2A4B20221A702A4B18221A704FF4A06323604EF6602340262671A36029
:20788000FFF7CAFF4FF47A73236148F2FE03314640F2FF260025E06025751F4C2A462380EF
:2078A00065802B46A580E580204601950095FFF713FE2046194905F0C0FB294601222046E0
:2078C000FFF7B8FE4FF480732046E38126806580A580E58025816581A581FFF785FE4FF479
:2078E0000073204626806580A580E58025816581A581E381FFF778FE09480C2102B0BDE843
:20790000704004F06FBF00BFBC660020B8670020B5670020B4670020565E00203068002052
:207920001868002038B5094C69B1B2F59A6F0ADC074D22802860074804F016FB042000F0CF
:2079400011FB00F0F3F80023238038BD4C6D0020406D00206868002008B5044804F0D0FF23
:20796000BDE80840024804F07DBF00BFCC4500206455002038B505460A4804F076FF04469A
:2079800078B1AC4209D12146064804F078FF2146BDE83840044804F0D7BF204604F0ADFF76
:2079A000EDE738BD64550020CC45002038B5054608B9002038BD094804F057FF04460028D9
:2079C000F7D010222946201D04F026FA18B1204604F093FFF2E7204638BD00BF645500206D
:2079E000F8B50E46054608B90020F8BDFFF7DEFF044648B9104804F093FF04460028F3D074
:207A000001460E4804F05BFF2B46251D03F110072A4618685968083303C2BB421546F7D1EC
:207A200036B1314604F1140004F0F3FE002300E0012323772046F8BDCC4500206455002014
:207A400038B50A4804F011FF044600255CB1251D284600F017FD08B1437C23B9204604F005
:207A60004CFF0446F2E7284638BD00BF6455002010B50A4804F0F9FE044670B1237F43B992
:207A800004F11400FDF7C2FF18B12046FFF772FFEFE7204604F031FFEEE710BD64550020B7
:207AA00013B5044601460120FEF7C8FD38B92046084BDB68019302B0BDE810401847064BBA
:207AC00000241C80054B1C70FFF726FA204602B010BD00BF00D520002868002033610020F7
:207AE00010B5144600F0F8F918B1024BC4611B68836110BD544D0020002108B50846FEF735
:207B00009DFD024618B902210548FEF78FF8054A00231380044A1370BDE80840FFF7FCB958
:207B2000D8450020286800203361002070B5394E88B03388002B6AD0B3F5A06F42D8364C4D
:207B4000238B73B9638B63B9A38B53B9E38B43B9238C33B9638C23B9A38C13B9E38C002BA2
:207B600030D02E4D6B6B984718B92D4B308018702CE0237EFF2B22D02A48FFF7FFFC10B167
:207B800000F052F843E02B6C04A8984708BB2548FFF7D4FC002836D1224805F0ADFA0446F1
:207BA00018B9FFF74DFF68B12FE005F0A3FA60BB2046EB6C9847204605F0A0FA02E000204A
:207BC000FFF76EFF164A002333801370FFF7A4F91DE004AC204600F055FC054678B92146BF
:207BE00002A805F035FA0623019500932A46012302A9204600F01CFC05460028E2D0284625
:207C000000F038FCDCE7074CE4E70446E2E708B070BD00BF286800203868002010D5200033
:207C2000336100205068002010B5064C238843B1012000F097F923881BB1BDE81040FFF7FF
:207C400075BF10BD2868002038B50446238810463BB140F24332934215D000232380032005
:207C600038BDFDF759FF214B40211870204804F0B9FD00F0E9F81F4B5B68984740F24333D7
:207C80002380012038BD022902D1FFF7CDFFF5E70BD80129F2D10028F0D0174B18600520D8
:207CA00000F060F9FFF742FFE8E787290CD1134B002103F580729D692033A84208BF23F85A
:207CC000101C9342F7D3D9E78829D7D1084B984202D104F099FDD1E7094B9842CED104F0BD
:207CE00093FD0028CAD0FFF727FDDBE7F96F00206855002010D52000406D0020506D002042
:207D000018680020074B1B680BB1283302E0064B1B681833186820B15A68044B1978FDF7EF
:207D200085BF7047486D0020406D0020F96F002037B5124B124D1C782B796A79C4EB032386
:207D400013449BB2ADF80630BDF806302022184405F1080180B205F0D2F9BDF8062004F15A
:207D6000280192B2294405F0CAF910B140BA80B201E04FF6FF7003B030BD00BF33610020DC
:207D800038680020F8B52C4F2C4D97F800E02C4C0EF1280C0CEB05035E780220F6002070EB
:207DA00007360021864243DB0CEB0003EA18EB5C012B05D002D3632B06D015E0013034E0C8
:207DC00052780232104430E001B120701D4B9B6B9847B8B13B782278283313441D446B7806
:207DE00013440233237025E003F0C003802B04D0C02B09D0402B15D102E051B1207008E0B9
:207E000001B120700120F8BD01B120702B7EFF2BF8D00EEB0002283202210420FFF762F980
:207E20000220F8BD537802331844C0B20121B9E701B120700020F8BD336100203868002050
:207E40003561002010D5200008B5FFF7FBFCFFF72DFA00F06FFC074B4FF480621A80002311
:207E6000194605481A182033B3F5807F1182F9D108BD00BF665E0020506D002070B5134B05
:207E80001D780DB3124E05F12701328891424FF0000105DB31801970BDE87040FFF73CB8E9
:207EA0000C4C197094F8283004F12800283AA371521B411904F058F833885B1B9BB233802E
:207EC000283B1A122271637170BD00BF3361002028680020386800201F4AF8B51446138891
:207EE0001E4F01339BB2B3F5FA4F28BF4FF480531A0A42EA032292B20025EE19368A964229
:207F0000164EEED02035B5F5807FF6D1238000235D017419278A47B92282618250B9014641
:207F20001022204604F084F810E00133082BEFD10020F8BD0346274600F1100E3A46186888
:207F40005968083303C273451746F7D1044B35441B7920462B75F8BD665E0020506D0020AB
:207F6000BC66002004282DE9F74F914C00F0DC81904D914A914905282A600A60AA4612D187
:207F80008F4B1B681B8A002B00F00A820C3A8D482A600A608C4A00231380036023808B4BC1
:207FA00008221A70BEE112F83C3CA2F13C0B03F0F003602B40F0F4819BF804009BF80510BD
:207FC000000225884618AE4200F3EA812831014421809BF80810FF2900F0E2817C4F363AA6
:207FE0007C4D7D4E3A6000222A7032709BF80620AAB901223270FFF7C5FE012800F0D081F1
:2080000003D3022800F0C88109E02A7802F12801594439604978083202EBC1022A706F484E
:20802000FFF7ACFA20B1DFF8A881DFF8AC918CE06A48FFF749FB0028F5D19BF81810684A0C
:20804000FF2941D048F2FE05108BA8423CD01089A84239D078B9508968B9908958B9D089DF
:2080600048B9128A3AB9BBF812005D4A18B9908A08B9D28A42B3BBF81800594A78B9508B8D
:2080800068B9908B58B9D08B48B9108C38B9508C28B9908C18B9D28CB2F5807F14D022886E
:2080A000B2F5A06F04D94FF4A06200210220CCE09BF80730012B03D8002211460320C4E0E8
:2080C000474A013BD37167E148F2FE02BBF80800904240F06581BBF81830414A83B9538BCA
:2080E00073B9938B63B9D38B53B9138C43B9538C33B9938C23B9D38CB3F5807F00F0508188
:20810000FF2900F04D813548FFF718FA0246002840F046810221F3E01CD93B2900F040818D
:208120003C291FD131788B0733D54A0600F1898041F0400189F80010FFF724FE012800F029
:208140002F8129D3022800F02781386801782C29E2D125E1112900F098802B2942D00029B9
:208160006FD102E03A296CD172E03178CA0768D441F0010189F80010FFF704FE012800F060
:208180000F81DFD2297801F128005844C8F8000007E041F00201CDE7297801F12800584461
:2081A00038604078083101EBC0012970CDE700BF28680020446D0020746800202C6800204C
:2081C000406D0020486D00204C6D0020386D00203C6D002033610020346100205068002055
:2081E0003868002031784B072BD4287841F0040100F1280E0BEB0E03DA7889F800106F4926
:20820000B2B16F4B0191DB6B984760B12388B3F5A06F3FF648AF0199CB79012B7FF64CAF71
:20822000013BCB71B8E0674B01461A782A320BE05978C8F800300830624B00EBC100187082
:2082400083E7CBEB000201210420FEF74BFFA3E004F071FF4FF6FF72904240F0A1802A7815
:2082600028320BEB020149781BF80200FEF718FF012805D1534A002323801370FEF74CFEA5
:208280002388002B00F08C8086E0FFF7F7FDBBF82E205AB9BBF82A20002A00F081804A4EF8
:2082A0004A4D464F2E6006F580760BE004F046FF4FF6FF72904273D1ECE70A8A32B92A683F
:2082C00020322A602968B142F7D317E0BBF82A009042F4D14A8A12B1388D9042EFD10A68A9
:2082E0002AB94A681AB98A680AB9CA6852B11022374803F091FD0028E1D103E000220421F6
:208300000120A2E723883349303B238000230B6031490220314A08703149CAF800200A609B
:20832000304A1380FFF7EEFC2E4B1A88002A37D002F130039BB22380204C283B1912637120
:2083400060232370214B08321B68002552BA2171197DA285E5851A8AE17122855A8A112141
:2083600062856570A17104F118060FCB86E80F00314604F10800FFF705FA1B4B04F13C02C3
:208380001A6004F0DBFEC04380B208B1E08502E04FF6FF73E38565800F4B00221A7009E06E
:2083A000084B00251D702580FEF7B6FD0F4B1D70094B1D7003B0BDE8F08F00BF386800204D
:2083C00010D5200033610020506D0020406D002040680020486D0020386D002068680020E8
:2083E0002C6800204C6D0020446D00203461002010B5044648B1054B9B6C9847044B214676
:20840000BDE810401868FDF7E1BF10BD10D52000E845002008B5FEF7D5F9034B034918689A
:20842000BDE80840FDF71EBFE8450020F183200070B504460D481E469DF81020059B0068A8
:20844000FDF740FF054670B120462B4604F1100250F8041B904243F8041BF9D1044B6E7411
:2084600028469B6C9847284670BD00BFE845002010D52000024B0146186804F02CBB00BF4E
:20848000E845002070B50C4D06462868FDF7FEFE044666B9002070BD10223146204603F08D
:2084A000BBFC38B12146286804F0E7FA0446002CF2D1EFE7204670BDE8450020024B0146CD
:2084C000186804F0F5BA00BFE84500202DE9F04F8D4C85B0E3798D4EFF2BDFF8509240F0C0
:2084E0000A813378E21892F83020FF2A00F00381234493F82920002A40F0FD80844B254689
:208500009846844F1A60DFF828A214223A7030783B782C30B9F80020034493425ADAE118DE
:208520004A78002A00F0E780E35C012B48D12B89C8F800107BB96B896BB9AB895BB9EB89E8
:208540004BB92B8A3BB96B8A2BB9AB8A1BB9E38A002B00F0D08008220DEB0200023103F06A
:208560008DFC6D48FFF78EFF0246CAF8000040B905230190009302A902236748FFF758FF1F
:208580001EE0FFF777FF8346002800F0B480D8F8000008225946023003F03EFC50B1012240
:2085A00002A9584604F09FFA002800F0A480DAF8003003E0DAF800305A7C0AB902225A7437
:2085C00033783A782C33134423445B7802EBC3023A709CE720440430FEF7D0FF4F4B4A4DE2
:2085E00018609846002800F086802B8973B96B8963B9AB8953B9EB8943B92B8A33B96B8AD1
:2086000023B9AB8A13B9EB8A002B74D0424D2846FEF7B4FF2F4600286DD140F2FF23228B18
:20862000A5F1080E9A4205F1100C19D16B8ABBB9AB8AABB9EB8A9BB92B8B8BB96B8BB3F553
:20864000807F0DD12B7FFF2B0AD195E80F008CE80F003378734430330FCB85E80F0011E073
:208660002F4D2846FEF78AFFD8F80030834242D197E80F0085E80F003378234430330FCB61
:2086800087E80F0060232370282363713A23A371FF23E371D8F800108823002584F82830BC
:2086A000E02384F82C3065706580257184F82950102202311B48357003F0E0FB3378022290
:2086C0004033E718E25418497A70B81C082203F0D5FB0622294607F10A0003F0A9FC33780A
:2086E00028331C44658004F026FDC04350236080A9F8003005E00023A9F800303370FEF72B
:208700000BFC05B0BDE8F08F38680020336100207C550020366100204068002080550020A0
:2087200050680020686800203068002028680020785500200148FEF7CFBC00BFFC45002033
:208740000C4AB82303FB00220023F0B553821E461A4640F24C550849CC18A77827B15F5CAD
:20876000874204BFA67001327133AB42F4D11046F0BD00BFA055002043610020044B0122C1
:208780001A70FD2100225A709970DA70FDF784BC3961002010B50E4C0220A179FDF724FF92
:2087A000A379112B01D0062B05D1218D638D9942A8BF194606E03A2B03D1218D49BA89B23F
:2087C00000E000210120BDE81040FDF70DBF00BF3868002038B513780546087A83F0020386
:2087E00098421DD1487A5378984219D1887A9378984215D1C87AD378984211D1087B13793B
:2088000098420DD1487B5379984209D1887B9379984205D1C87BD379984201D103201CE044
:208820000B890F4C83B94B89B3F57F4F0CD18B89FE2B09D102220E31206803F01FFB23684C
:2088400002200233236008E008221144206803F015FB2368012008332360A840C0B238BD93
:208860009055002010B5074C01462378012B01D0002010BD0822A01C03F0CEFA0028F7D17E
:20888000204610BD3961002008B501460E20FDF7B9FE044B00219B6803489847BDE8084084
:2088A000FAF7E8B8E8D42000B98F20002DE9F04F874E884D002389B033702B700446FDF70C
:2088C00049FEFDF7D9FD844A844B126818600296009599460AB1FFF75DFF0CB9804900E071
:2088E000214606A804F020F90420FEF70BFB01460620FDF779FE009BD9F800201B78794E79
:208900000233D11831600021D1547748FFF7AAFF20B1336880240133336005E07348FFF797
