:020000040020DA
:20200000687A00208D222000D3CE2000D1CE2000D1CE2000D1CE2000D1CE20000000000032
:20202000000000000000000000000000D1CE2000D1CE200000000000D1CE200073CF200001
:2020400085CF20008BCF200091CF200097CF20000000000079CF20007FCF2000D1CE2000F7
:20206000D1CE20000000000000000000000000000000000000000000D1CE200000000000E2
:202080000000000000000000D1CE2000D1CE2000D1CE2000D1CE2000D1CE2000D1CE2000C6
:2020A000D1CE2000D1CE2000D1CE2000D1CE2000D1CE2000D1CE2000D1CE2000D1CE200028
:2020C000D1CE2000D1CE2000D1CE2000D1CE2000D1CE200000000000000000000000000045
:2020E000000000000000000000000000000000000000000000000000753720008537200038
:202100000000000000000000000000000000000000000000000000000000000000000000BF
:2021200000000000000000000000000000000000000000000000000000000000000000009F
:2021400000000000000000000000000000000000000000000000000000000000000000007F
:2021600000000000000000000000000000000000000000000000000000000000000000005F
:2021800000000000000000000000000000000000000000000000000000000000000000003F
:2021A00000000000000000000000000000000000000000000000000000000000000000001F
:2021C0000000000000000000000000000000000000000000000000000000000000000000FF
:2021E0000000000000000000000000000000000000000000000000000000000000000000DF
:202200000000000000000000000000000000000000000000000000000000000000000000BE
:2022200000000000000000000000000000000000000000000000000000000000000000009E
:2022400000000000000000000000000000000000000000000000000000000000000000007E
:2022600000000000000000000000000000000000D1CE2000593620007D362000F52C2000DC
:20228000F538200099282000D1CE200008B5094BFF221A600848094A4824E369121A0849CD
:2022A00098470848084AA369121A0021984703F025FEFEE7B4200D40404000203148002010
:2022C000B4ED2000384800206272002008B5002000F03CFB012000F039FB0C49002000F0FB
:2022E00009FC04F0F5FA002004F0BEFB01F0DAF900F024FD00F040FD0821054801F00EFBB7
:2023000062B6BDE8084004200AF0E6BD8D6820004272002073B51D4B1B68022B08DD1C4984
:202320001C4A1D4801F034FB1C491D4801F030FB6846082101F0F2FA1A4E9DF807309DF84F
:202340000650F46A43EA05254AF6CD310220A04729460320A0471A210120A0470822736B67
:2023600069460B2098470AF0F1FD00F0C7F900210D4804F08BF90D4B01219B688120984721
:2023800002200AF0A9FD02B070BD00BFB846002071E520006CE5200076E5200085E52000D3
:2023A000B3EA20006CE32000DC46002094E220000022F0B51746154C0125FF2640FA02F31A
:2023C000DB071ED504EB4203597814F8123061B1D908090301F1804103F0070301F55921B6
:2023E00005FA03F341F823700BE0D908090301F1804103F0070301F5592105FA03F341F8F6
:2024000023600132032AD9D1F0BD00BFAAE52000F0B5104C00210125FF2640FA01F3DB0797
:2024200014D504EB41035F7814F81130DA08120302F1804203F0070302F5592205FA03F34C
:2024400017B142F8236001E042F8237001310329E3D1F0BDAAE5200070B40E4E0022012513
:2024600016F812300C49D80800030C5803F0070305FA03F324EA03040C50203901440868FF
:2024800001320343032A0B60EAD170BC0720FFF7BFBF00BFAAE5200020940D4008B50B4B27
:2024A0001B78034203D0202804D0042804D04FF0004008BD052000E00220054B80211A7867
:2024C00000F0D4FB20EAE07000B208BD1961002018610020802810B50C4603D0B0F5807F03
:2024E00025D031E08B1E222B2ED8C943184B1A680A401A60174A13680B401360A20604D50A
:2025000001220521002000F095FB630704D501220221002000F08EFB00F0A0FB0E4B30227A
:202520001A700E4B187804431C70002010BDC8B2102806D001D820B106E0202801D03028DF
:2025400002D1054B187010BD4FF0004010BD00BF20940D4000940D401861002019610020E3
:2025600020B1012805D1044B18787047034B186870470020704700BF1A61002020900D4042
:2025800010B5094A0020137801331370074B197804F054F8BDE8104005490023054A096878
:2025A000054803F0D3BD00BF1A6100205A720020784C002081252000504C0020812808B539
:2025C00028D0B0F5807F37D0802837D103F0CAFF1B4B1C4A18701368032123F00803136068
:2025E00052F8203C002023F0080342F8203C52F81C3C23F0080342F81C3C52F8183C43F03E
:20260000080342F8183C042200F014FB0E4804F071F913E00D4B0E481A6829B142F008020F
:202620001A600123036005E022F008021A600123C0F88030084608BD064B1960012008BDCF
:202640005A72002020940D40B844002010940D4000E100E0784C002008B50F480BF0C2F812
:20266000C8B108210C480BF0B1F80C4B196869B10B4B00221A700B4B1B6823B90A4A0B4870
:2026800003F064FD02E0094803F086FDBDE80840074804F0BBB908BD704C0020784C002014
:2026A0001A61002020900D4081252000504C002094E22000084A136823F00403136052F8C6
:2026C000203C43F0040342F8203C044B00221A60034B01221A70704720C40D4010C00D40E3
:2026E0001B610020044B1868C0F30720030904BF1030C0B2704700BF1C300D4008B5FFF752
:20270000F1FF014B1B6808BD1C300D40F8B500F081F80F4B0024D3E900673A46B04238BF7C
:202720007A1C15460443C3E90045DFF828E0DEE90001821B61EB070312196B41CEE9002325
:2027400003F0F8FD18B1BDE8F84003F077BDF8BD38480020404800200D4B0E4AE0215A605C
:202760000D4A82F82310002207219A6019600B490B6843F001030B60094B1A60042243F800
:202780000C2C012243F8082C0F22DA62704700BF10E000E047E8010000ED00E008200D404A
:2027A0000C000340034BD3E90023100A40EA0360704700BF38480020034BD3E90023D00BD8
:2027C00040EA4340704700BF40480020054B18601C3B1A6842F001021A601A68D207FCD4B3
:2027E000704700BF2800034010B5064C236823F001032360FFF78AFF236843F001032360F8
:2028000010BD00BF10E000E0014B1868704700BF7C4C0020074B084A196804331B681268D9
:20282000120442EA0323054A0B43106843EA0060704700BF40500D4048500D404C500D406D
:2028400010B50446104A1368DB07FCD572B6FFF7E1FF231A062BD8BFC41D0C4B220E1A60FC
:20286000C4F3074243F8042CC4F3072243F8082CE2B243F80C2C62B6054B4FF400321C603E
:20288000044B1A6110BD00BF50500D404C500D407C4C002000E100E008B500F091FF074BD4
:2028A00000221A60064B4FF40032C3F89021C3F89020BDE8084003F00DBF00BF7C4C00208C
:2028C00000E100E0064B1B681B075FBF054B186880F00800C0F3C00048BF0020704700BFCB
:2028E00018C0004018D00040164A2C2303FB00234FF6BF7270B5DC680546236C62649BB2FC
:2029000013F050020DD0104EA369DB0608D456F825301BB12068C0B29847F5E72368F3E7D5
:2029200070BD13F4D06F0BD04FF440732363FF236360E36AE262E362236B43F001032363C7
:2029400070BD00BFA4E22000804C002001282DE9F74F064600F2BD802C2545435E4B5C1902
:2029600094F920909846B9F1000FC0F2B28094F92230002BC0F2AD80584800F097FF584AEE
:2029800058F805301168E5680B4313605168636894F921A00B4353609168A36894F8227036
:2029A0000B4393600023C5F8C83F23690AEBC9021A6094F823305FFA87FB00939DF8003017
:2029C000227D19465846019300F03EF9019B08221946584600F02EF97FB2424B3F039DF930
:2029E0000020F9584FF0010E0EFA02F20A43FA504FEA093959F803100EFA0AF20A4349F814
:202A000003205022AA63AA6B94F8240042F4D062AA6302226A634FF440722A63A2696A6290
:202A2000E269AA627022EA6242B2002A1D4617DB94F925302C4943EAC2030B6094F8251079
:202A4000120353594CB20EFA04FE4EEA03035351002200F0EFF8254A136843F400431360FB
:202A60002C2303FB068393F826904FFA89F4002C1CDB93F827705FFA89F95FFA87FA01225C
:202A800051464846240300F0DFF87FB26359012202FA07F71F43082267515146484600F0C0
:202AA000C9F8124A136843F4804313602C2303FB0686F268136B43F00103136396F82830CD
:202AC0000122590903F01F0302FA03F3084A42F8213003B0BDE8F08FA4E22000C528200003
:202AE00028200D4020940D4004410D4030D0004000E100E001289CBF014B43F820107047BB
:202B0000804C0020012808D8044B2C2202FB0030C3689A699206FCD419607047A4E220008A
:202B2000014B00221A60704700500D40014B08221A60704700500D40024BA0221A6050221A
:202B40001A60704700500D40014B024A9A60704700ED00E00020200038B5164D164C2B680C
:202B6000012223F040032B602368062123F040032360032000F05EF82B68012223F0800311
:202B80002B602368072123F080032360032000F051F80A4A0A4B0B491A600A680A4B1340F1
:202BA000084A002BF9D113685901FCD413685B01FCD538BD20C40D4000C40D400101020046
:202BC00000200D4004200D40000001012DE9F84304464FEA0438DFF83C9008F1804606F5A8
:202BE000592600F0EDFDD6F8187458F80930E50023FA05F447EA0400C0B2E4B2A840FFB2C8
:202C0000AC4003F07DFEC6F81C7448F80940BDE8F88300BF18970D40034A044B1A60044B43
:202C2000803A1A60704700BF80400D408C4C0020884C0020034B01EBC0011B6843F82120F7
:202C4000704700BF8C4C0020034B01EBC0011B6843F82120704700BF884C0020024A1368DB
:202C600043F030031360704700700D400E2870B50BD1164B164E1C6844F002051D60356832
:202C800025F03F0343F001033360124E336823F0FF031A43114301430F4A316013681B0688
:202CA000FCD50E4B0E4A1B6812680E2803F0FC0343EA022308BF064A9BB204BF1560034A32
:202CC0009BB208BF146018B270BD00BF34000144F486084008700D4000700D400C700D4030
:202CE00010700D40024B1868B0FA80F04009704700B7084010B5074B4FF40042064CC3F878
:202D00009021C3F89020206818B103F0D7FC0023236010BD00E100E0904C0020064A136885
:202D200043F002031360536843F002035360936843F002039360704748200D4007B50C48A0
:202D400000F0B4FDFFF7EAFF0A4B1A6842F002021A6000220192019A0F2A02DC019A013237
:202D6000F8E71A6822F002021A6003B05DF804FBE52C200054200D40064A136823F0020386
:202D80001360536823F002035360936823F002039360704748200D40084B93F90020002A9F
:202DA00009DB074AED2111601160E32111601A7862F07F021A700120704700BF1F61002053
:202DC000388808400C4A13689907FCD40A4B1B685B065FBF094BED221A601A60084B1B6826
:202DE00013B1064BEF221A60064A0120137803F07F031370704700BF4C86084038880840A7
:202E00002C8608401F61002038B5A0F10B04E3B20F2B054613D80B4B1B6813F03F0302D096
:202E2000FFF7D0FF012304EB8404074A0B3414600BB1FFF7B1FF054BE8B21D7000E0FF2056
:202E400040B238BD488608403C8608402748002010B50B4B1B68990603D1FFF79DFF012315
:202E600000E0002307490A68D207FCD5064A1468C4F300140BB1FFF7A5FF204610BD00BF04
:202E800048860840648608404C860840044B186800F02200A0F1200358425841704700BF92
:202EA0004C860840024B186800F04000704700BF4C86084038B50C46002900F089801028D2
:202EC00000F28880DFE800F0090F1A1C233942545970748686797B7D80003F4B1B68003387
:202EE00018BF012371E03D4B05221B6803F07F030B3B93FBF2F30B33DBB266E0384B00E0B2
:202F0000384B1A68043B1B6843EA02235DE000230B60354B354A1B6803F001030B6012686F
:202F2000900644BF43F002030B60314B1B78002B4CD00B6843F0040347E02E4B00201B78FF
:202F40000860002B42D001230B6038BD2A4B2B491A680023D2B201EBC3000079904203D861
:202F6000264A52F8333030E001330E2BF3D128E0234B1B685BB2493B27E0224B1B689906D3
:202F800003D1FFF709FF012300E000231E490A68D207FCD51D4A1568493DEDB20BB1FFF7FA
:202FA00011FF6DB2256011E0194B93F900300CE0184B1B7803F07F0307E00B2305E01A23BE
:202FC00003E06FF0170300E007232360002038BD022038BD012038BD2C8608403C860840C2
:202FE000CC850840D485084000860840248608401E6100202648002040860840FCE220009E
:20300000588608404886084064860840608608401D6100201C61002038B505460C46134AF2
:2030200013689B07FCD4124B93F90030002B01DBFFF7B2FE0F4BEE221A60691E1A60A21C3A
:2030400043F8102C2144022000F046FB013C0A4924012143022000F051FB022000F058FB65
:20306000022000F06DFB002038BD00BF4C8608401F6100203888084002C001C0F8B5214BA4
:2030800093F90030002B0DDBFFF7C4FB0546FFF783FE6FF00904641BFFF7BCFBC442FBD47D
:2030A000012600E00026184B1B7823B9174D2B68990604D405E0FFF7CBFE0028F6D10220EE
:2030C000F8BD134CE923236004272B689A0707D4013F17F0FF0703D00620FFF777FBF4E78A
:2030E0002B689B0704D4EE2323602360012403E02C6814F00204FBD10EB1FFF763FE2046BE
:20310000F8BD00BF1F610020264800204C86084038880840214B1870002834D0204A1368E6
:203120001B03FCD51F4B1A6842F002021A601A6842F001021A601A681A495007FBD50A6855
:2031400022F001020A601968164A4907FBD4116841F002011160116841F0010111601A6833
:203160005207FCD5104A136823F004031360D2F8A83123F00403C2F8A8310C4B4FF4005287
:20318000C3F890207047084A136843F004031360064B4FF400521A61704700BF1E6100201D
:2031A00004200D40048808408C86084000E100E010B50C46072861D8DFE800F0040E181C33
:2031C000233F455B012902D1FFF7E6FD4BE0002958D1FFF7F7FD46E0A1F10B030F2B51D887
:2031E000C8B2FFF711FE01303DD149E08CB2E2B2254B02E08CB2254BE2B2240A1A605C601E
:2032000031E031F007033DD1214B11F0010F1A68C1F3800014BF42F0010222F001021A609A
:203220001C4B11F0020F1A6814BF42F0200222F020021A60FFF76EFF15E031F0010021D152
:20324000154B197010BD01F118031F2B1AD813490D2351F83300DA00844206DC0F4B134434
:203260001A790F4B1A60002010BD13F1FF33F0D2F9E7CCB20B4B49341C60F4E7012010BD8C
:20328000032010BD022010BDC8850840D0850840008608402486084026480020FCE22000D1
:2032A00040860840588608400B280DD1082A0DD161B1074B074A083111F8010D43F8040F66
:2032C0009342F9D1002070470120704702207047A4850840C485084070B5304E336813F084
:2032E000400308D02E4D2B68DCB21B0605D52D4BED221A601A60002070BD042CF7D9023C16
:203300008C42F4DCE4B2032C21D001190139032000F0EAF9631E24491B011943032000F096
:20332000EDF9032000F0F4F9032000F009FA032000F012FA0028FAD129681C4B4939C9B28A
:2033400019702B681A4D18062B70D0D506E02B6803702B6843702B688370EDE749B289B2CA
:20336000042003F067FE2978032001F07F0103F061FE104B1B7873B933685A060BD5074B03
:203380001B681B0603D50C4803F098F903E0054BED221A601A60204670BD00BF4C86084037
:2033A000288808403888084002C0010C1D6100201C6100201E610020D4440020F8B5294F07
:2033C0003D7815F001054BD1274B01241C605C609C60A3F59323A3F51473F8221A6009221A
:2033E000C3F89021152270331A6003F59B230B2203F59E731A60A3F59B23A3F5F0734022F4
:203400001A601A687F2642F020021A60D52243F81C5CDE62DA61154B1878FFF7F5FC144BE2
:203420004FF480421E60134B02201A6100F07CF91149022000F058F9032000F075F90E4914
:20344000032000F049F90D4B1878FFF763FE29460B4803F01BF93B78204623433B70F8BD30
:203460000020F8BD1F610020A8200D40274800209486084000E100E0288808401E61002079
:20348000D444002038B503880446CBB140F2F732934203D000230380032038BD194B187801
:2034A0001A4628B11B7873B1174B1B7858060AD5822908D1137843B1134B1A78520614D4B7
:2034C00040F2F7332380012038BD03F069FD03F0F9FC8021FFF700FF0028EDDD80B203F0E9
:2034E000D5FC0A4BDB689847E6E700221A70084B1D68FFF767FCFFF761FFAB06E0D0FFF72D
:203500004BFCDDE71E6100201F610020DCE32000488608400B282DE9F84F0E4610D1082A75
:2035200040F0828000297FD0414B424A4E1E53F8041D934206F8011FF9D10020BDE8F88FE8
:203540000C286ED1042A6FD100296DD03A4B3B481A68DFF8F8C022F007021A600268DFF835
:20356000F0A042F008020260DAF80040DCF800101A68DFF8E0E022F07002314F1A60DEF8BA
:2035800000203D68E4B2090244EA056401F47F411204214302F47F020A432A490024D1F8DB
:2035A00000805FFA88F544EA02081A68A94622F0070242F001021A60026842F0080202603A
:2035C000DAF80000DCF800201D68C0B225F0700545F010051D60DEF800303D68120240EAF4
:2035E000056002F47F421B04024303F47F0313430A6844EA030A5FFA82FBFFF70BF9B8EB5C
:203600000A0869EB0B094FEAC93105460E4A00234FEAC83041EA584108F04AFF281A30602F
:203620008BE70120BDE8F88F0220BDE8F88F00BFC8850840A8850840108808400488084000
:20364000208808401C8808400048E80118880840148808402488084008B5054B1B7813B931
:20366000044803F02BF8044B00221A6008BD00BF1E610020D444002034880840064B0748FE
:203680001A68042A1FBF06490A7842F040020A7000221A6003F012B82C880840D444002050
:2036A0001F61002010B5094C40220021204609F0E9F9074B01221A605C60064B4FF480428B
:2036C0005A604FF400425A6010BD00BF0040002004F00F4000E100E003289EBF014B00012C
:2036E000195070470040002003289EBF024B03EB00104160704700BF0040002003289EBF78
:20370000024B03EB00108160704700BF00400020032806D8034901220B6802FA00F0184375
:203720000860704728F00F40032806D8034901220B6802FA00F018430860704720F00F4053
:20374000032806D8034901220B6802FA00F018430860704714F00F4003289FBF044B03EBFF
:203760000010806800F0070088BF0020704700BF00400020024B4FF0FF321A60704700BF70
:2037800004F50F40014B01221A6070474CF00F40094A1368084913F4801FFAD1074B1A6852
:2037A00022F480321A600A68D203FCD41A6842F400321A60704700BF04200D4000200D40F8
:2037C00010B50A4C23689A070FD009490B68084A13F0806FFAD113685B01FCD5FFF704F855
:2037E000FFF7D6FF23680023236010BD58200D4004200D4038B5274B1C6814F03F0413D1BC
:20380000254D55F8243023B1984768B10134052CF7D1224D2B783BB1FEF7F6FF0446FEF774
:20382000F9FF201A092801D830BF38BD002CFBD01B4B1C481A6822F400321A600268194997
:2038400012F4801FFAD11A6842F480321A600B68DB03FCD5FEF7DEFF201A092803D8BDE835
:203860003840FFF795BF63280F4C02D92B78022B00D00123236002F0D7FE20B1FFF788FF69
:203880000023236038BDFEF7BFFF0028F6D02368CAE700BF48860840944C0020206100203A
:2038A00000200D4004200D4058200D400749002351F82320824207D01AB9044A42F823004D
:2038C00070470133052BF3D1704700BF944C0020054B00221A60054A136943F0040313612E
:2038E000034B02221A70704758200D4000ED00E02061002010B5074B4FF48032064CC3F8C9
:203900009021C3F89020206818B102F0D7FE0023236010BD00E100E0A84C002030B5184BE3
:203920001A78431E22B101F520112731154A1FE0154A1278122AF6D1144A12784B2AF2D1D8
:203940004A0802F12814B4F1281F04D014F8015D03F8015FF7E701F520112731002310448D
:20396000934204DA11F80149C4540133F8E730BD914204D011F8010903F8010FF8E730BD98
:203980002B002800270028002A002800290028000FB407B504AA52F8041B0448019200F07D
:2039A00035F803B05DF804EB04B07047E44400201FB51446074A8DE80300029221461A46DE
:2039C00002A8CDF80CD000F021F8009B00221A7004B010BD5DD0200070B505460C46102C80
:2039E00007D92B68102208496868984750B9103CF5E734B12B68224668680349BDE87040A0
:203A00001847204670BD00BF38E620002DE9F04F064615468FB006914FF0000B069B1B7867
:203A2000CBB1069C274617F8013B1BB1252B14D03C46F7E7069BA3420DD0069B0699C3EBFF
:203A400004084246336870689847002840F01F832378C34423B9584634E3069BA342ECD110
:203A60006378002BF7D039460024084610F8013B0A462B2B11D006D8202B11D0232B12D182
:203A800044F0080416E02D2B04D0302B0BD144F010040FE044F001040CE044F0060409E00A
:203AA00044F0020406E0A3F13107082F11D84FF0000801E00146D8E70A4611F8013BA3F1A3
:203AC0003000092813D80A2202FB0838A8F13008F2E72A2B09D12B680246002B05F1040553
:203AE000B8BF44F00104984601E04FF0000813782E2B1AD15178531CA1F1300009280ED830
:203B0000194600270A780B46A2F13000092801F101010DD80A2303FB0727303FF2E72A298B
:203B200004D12F68931C043502E013464FF0FF371A786C2A09D15A786C2A02D144F080048C
:203B40000AE0013344F060040BE0682A09D15A78682A03D144F02004023302E0013344F049
:203B600040041A78642A3CD01FD8462A48D00DD8252A5AD003D8002A3FF46DAF57E0412A02
:203B80004AD0452A53D144F4424450E0582A31D004D8472A4BD144F4A13448E0612A38D0D6
:203BA000632A44D144F4A06441E06E2A3AD007D8662A22D027D3672A28D0692A11D036E0F6
:203BC000732A2CD006D86F2A11D0702A2FD144F440742CE0752A07D0782A28D144F4C854FD
:203BE00025E044F4245422E044F410641FE044F488541CE044F4B24419E044F4007416E08A
:203C000044F4844413E044F4024410E044F481340DE044F4C1340AE044F4E13407E044F4E6
:203C2000806404E044F4E06401E044F4C0640133069304F4E063B3F5806F00F08F8113D879
:203C4000B3F5807F27D0B3F5407F7FF4E7AEAE4B14F4804FAD4A18BF1A460DF13303286895
:203C6000002104351F46B5E1B3F5C06F08D0B3F5E06F00F02282B3F5A06F7FF4CFAEF2E13B
:203C800033680122A24970689847002840F0FF810BF1010BC2E6002FACBF24F01004012752
:203CA00014F40053079304F0E0032ED0402B12D005D8ABB1202B21D195F900200DE0602B51
:203CC0000ED0802B1AD1073525F0070303F10805D3E9002307E0B5F90020D317043502E07B
:203CE0002A680435D317002A73F1000108DA524263EB4303CDE90023012304E00022002350
:203D0000CDE900230023059329E0402B13D004D8BBB1202B1DD12A780EE0602B11D0802B90
:203D200017D1073525F0070303F10805D3E90023CDE900230BE02A880023CDE900230435B5
:203D400005E02B6800221946CDE900120435079BD9E70023059300220023CDE9002304F436
:203D6000C053B3F5805F0CD0B3F5C05F33D0B3F5006F4FD1DDE900230DF13609CDE90223CB
:203D800004E0DDE900230DF1360915E0DDE9022313433AD0DDE902010A22002308F088FB46
:203DA000DDE90201303209F8012D00230A2208F07FFBCDE90201E9E752EA030125D002F038
:203DC0000701303109F8011DD10841EA4371D8080A460346F0E74C4B14F4804F0DF13609A8
:203DE0004A4918BF1946DDE9002352EA03000CD002F00F00085C4FEA131E09F8010D1009FF
:203E000040EA037002467346EFE70DF13603C9EB030302E00DF1360900230293029B41F692
:203E20000802BB4238BFFF1A41F2080302EA040228BF00279A4202D1002F08BF012741F629
:203E40000801029B8A4203EB07000DD1DDE90023134309D02F4A304914F4804F4FF0020AF1
:203E60000CBF0B46134602E04FF0000A5346079A9AB1059A52B904F00602022A0AD0062A41
:203E8000264A04BF4FF0010A134606E04FF0010A234B02E0234B4FF0010A0AEB0002904548
:203EA0008CBFC2EB08084FF0000814F0010200920DD1E10602D54744904608E04146304638
:203EC0000593FFF789FD059B002840F0E080BAF1000F07D03468524619467068A04700286B
:203EE00040F0D580029B03EB0B04BB46BBF1100F33681BD910220C4970689847002840F0B2
:203F0000C680ABF1100BF1E706E6200017E6200036E6200028E620000EE720002DE62000F1
:203F20002BE6200083E52000F6E52000BBF1000F06D05A46654970689847002840F0A780B8
:203F40003368029A4946706854449847002840F09E80009B3C44002B39D032E0D5F8009018
:203F60000435B9F1000F0AD0CA469AF800300AF101020BB19246F8E7C9EB0A0A03E0DFF8B0
:203F800050914FF0060A002F02DBBA4528BFBA46D0458CBFCAEB08084FF0000814F0010787
:203FA00005D141463046FFF717FD00286FD133685246494670689847002868D10AEB0B04DE
:203FC0002FB141463046FFF707FD00285FD108EB040B23E550EA010E0ED000F00F0E12F86A
:203FE0000EE04FEA111C03F801ED4FEA101E4EEA017E70466146EDE7FF1A02BF30220127E1
:2040000003F8012C07F1030708BF03F1FF337822B84503F8012C4FF0300203F8022C88BFE9
:20402000C7EB08084FF0230298BF4FF0000814F00104A3F1030903F8032C04D14146304617
:20404000FFF7CAFC18BB33683A46494670689847E8B95F4424B141463046FFF7BDFCB0B942
:2040600008EB070BDAE4B8F1010F2B688CBF08F1FF384FF0000814F0010405F104058DF8E2
:20408000203008D141463046FFF7A6FC10B14FF0FF3017E0C3443368012208A9706898470F
:2040A0000028F4D108F101072CB141463046FFF793FC0028EBD1BB44B0E42B680435C3F8B5
:2040C00000B0ABE40FB0BDE8F08F00BFF6E520002FE620002DE9F0411C4640F60103069D49
:2040E00090462A680F469A4201DC00260DE08221384609F058F9194808F09AFD1749024634
:204100003846BDE8F04109F0D6BAA64209DAA11B08EB06002B68124A013108F0B3FF06442D
:20412000F3E7B442A8BF344640F602022B683846E1189142C4BFC3F50064023422464146F3
:2041400009F0B9FA2B681C4440F601039C42CABF4FF0FF332C602B60BDE8F08148E6200033
:2041600058E620002DE9F043B84B16461A889B788BB08DF812304FF0FF330F46059305A976
:2041800000230546ADF8102006930793089309938DF80D30ADF80E3009F016F950B1059B24
:2041A000AB4A3121304608F06DFF3028044600F30E8100E0044605A9284609F017F950B16A
:2041C000C4F131013019059BA24A08F05BFF0444302C00F3FC8006A9284609F01BF950B193
:2041E000C4F131013019069B9B4A08F04BFF0444302C00F3EC8006A9284609F03FFA50B174
:20420000C4F131013019069B944A08F03BFF0444302C00F3DC8007A9284609F032F903463F
:2042200058B1079AC4F13101009230198C4A08F029FF0444302C00F3CA8007A9284609F024
:2042400037F9034658B1079AC4F1310100923019844A08F017FF0444302C00F3B88007A91E
:20426000284609F040F9034658B1079AC4F13101009230197C4A08F005FF0444302C00F390
:20428000A68007A9284609F03BF9034658B1079AC4F1310100923019744A08F0F3FE044409
:2042A000302C00F3948007A9284609F034F9034658B1079AC4F13101009230196C4A08F0F4
:2042C000E1FE0444302C00F38280AB7A03B3C4F131013019674A08F0D5FE05F10A0904448E
:2042E0004FF00008AB7AC4F13101984506EB040008DA19F8013F604A08F0C4FE08F1010800
:204300000444EFE75D4A08F0BDFE0444302C5EDCEB7C5A0600F1C480EB7CDB0606D5CBE07D
:20432000564A08F0AFFE0444302C50DC002300930DF10D020DF10E0309A9284609F03AF94A
:20434000A0B19DF80D104E4A4E4B3019002918BF1346BDF80E2000930192C4F13101099BF3
:20436000494A08F08FFE0444302C30DC002300930DF10D020DF10E0309A9284609F04CF945
:20438000A0B19DF80D103E4A3E4B3019002918BF1346BDF80E2000930192C4F13101099BD3
:2043A0003A4A08F06FFE0444302C10DC08A9284609F078F9034640B1089AC4F131010092A6
:2043C0003019334A08F05EFE04442F2C02DDBB2386F82F3022463146384609F06CF90021AA
:2043E000384608F0FCFF1121384609F020F8022204A9384609F022F82649384609F0A6F8A5
:204400002146384609F046F92349384609F044F80A21384609F0C7F82049384609F025F802
:20442000402300222A21384609F0DDF8102300221721384609F00BF90021384608F0E2FFE0
:20444000384609F00CF80BB0BDE8F0837FE6200082E6200089E6200090E6200098E620003E
:20446000A0E62000A9E62000B2E62000BBE62000C4E62000CDE62000D3E62000F4E62000FE
:204480002DE62000F5E62000D8E62000E7E6200062E7200028480020F6E62000FBE620002D
:2044A000C4F1310130196B6E124A08F0EBFD0444302C7FF731AF8AE7C4F1310130190E4AC4
:2044C00008F0E0FD05F1240904444FF0000895F82430C4F13101984506EB0400BFF620AF37
:2044E00019F8013F054A08F0CDFD08F101080444EDE700BF03E720000BE72000D3E6200088
:20450000F0B50D46064685B000212846144608F066FF04A9002341F8043D304608F0C8FF5D
:20452000104F0646786808F083FB864206D17B680D4A3021204608F0A5FD08E0039A331A7E
:20454000024400923021094A204608F09BFD204608F06EFB21460246284609F0ACF805B0B3
:20456000F0BD00BF3445002041E7200061E720000F4B70B55B680120984706460D4C0E4D44
:20458000236828680133301A236008F021F9002802DD2368042B02DC23683A2B07DD002357
:2045A00023602E600548BDE8704008F0B0BD70BDA4E3200080450020584500205C450020AC
:2045C000F0B5244B85B007465B6801200C461546984704A94FF0FF3341F8043D0646384673
:2045E00008F004FF03994B1E033310D90021204608F0F5FE4FF47A7096FBF0F300FB13601B
:20460000154A00903021284608F03CFD0AE032290ED1204608F0E3FE3346104A30212846C6
:2046200008F030FD284608F003FB2946024608E08621204608F0B7FE094808F0F9FA024614
:204640000749204609F037F83C21204608F0EFFE05B0F0BDA4E3200081E7200087E72000B5
:204660009AE7200008B50A4A1378012B03D9BDE8084001F0DFBA01330649137001F0E8FAA5
:20468000BDE80840044A1021044808F0FBBC00BF21610020AC4C002004E82000E04C0020E2
:2046A00070B5174EACB033783BB3164C2146E08A00F0EEFD054600B34522214601A809F0FF
:2046C0002DF804F1340008F0B3FA04F13401024601A808F0F0FF238E0022E16A01A808F026
:2046E00082FF05F1460101A800F018FFA5F84400284600F0FDFD002333702CB070BD00BF85
:2047000021610020AC4C002037B50C23154600220C468DE80C0012496A4608F032FE50B140
:20472000009808F059F820EAE0703028C8BF30230190C8BF0193019A0A49284608F0C8F84C
:204740000021204608F04BFE01A90122204608F075FE019A2946204608F0ADFF03B030BD3F
:2047600025E8200029E820002DE9F041AEB0349D1C462B6880460E461746002B44D14FF476
:2047800080730093344A354B01F066FB044600285ED13349404601F05BFA41F201052146BA
:2047A00030480134FFF7F4F8AC42F8D12C4C2E48FFF7EEF82146E08A00F06AFD054600284E
:2047C00046D0264E4522214603A808F0A7FF228E336821499A4228BF1A4603A808F06BFF53
:2047E000238E3268934204D20122002103A808F0FAFE05F1460103A800F090FEA5F844009D
:20480000284600F075FD23E0DFF85080D8F80020934206D38221304608F0C5FD0F22134920
:2048200013E00D4920221944384608F051F82B68D8F800203946D21AA24238BF94B222465A
:2048400034BF4FF0FF331B192B60304608F033FF2EB0BDE8F08100BF22610020344D00209E
:20486000384D002092E82000F4E6200048E62000034A044813680133136008F048BC00BF3B
:204880006C4D0020F045002070B50C4615461E460021204608F0A3FD064B3146064A28460F
:2048A0001B6808F0EFFB294602462046BDE8704008F001BF6C4D0020E1E82000034A04480E
:2048C00013680133136008F022BC00BF704D00201446002070B50C4615461E46002120460D
:2048E00008F07DFD0A4B20461B6A1968C90908F09EFD084B3146084A28461B6808F0C2FB5E
:20490000294602462046BDE8704008F0D4BE00BF14460020704D0020D7E8200038B50C4C61
:2049200013460D4600220146204608F01DFD01F05BF90146204600F0F1FD044601F054F992
:20494000A2B201462846BDE8384001F059B900BF784D002070B506460A480D4608F053FF2A
:20496000044664B1237FAB4201D02468F9E72A46314604F11D0007F079FF0028F5D1204650
:2049800070BD00BF744D002070B584680546ACB194F90830002B11DA236A7BB11A686AB160
:2049A000074A127812B11B6A03B19847236A2846BDE870401A68002308F0C8BE70BD00BFE2
:2049C000226200202DE9F34706461248884691469A460A9F08F017FF0546A5B16C6884B157
:2049E000009753464A4641463046A047044640B1B379012B09D142463146002000F072FB2A
:204A000003E02D68E9E7284600E0204602B0BDE8F08700BF244E00202DE9F04FA04D8BB0FE
:204A200080462846039100F01FFF9E4E04463070C5F8A080002840F01881AB79013B032B6E
:204A400000F2ED804146288900F022FC0746002800F0DF802023ADF816306B7906940794A6
:204A600008941BB92B894522022104E000F04EFD0346452201218C4808F076FCAA7A1AB16A
:204A80008A49894808F095FC07AB009300220DF1160306A9824808F08DFD40B1BDF8163084
:204AA000202B28BF2023ADF81630079B0893BDF816A008AB07F1840900934A4653467A4937
:204AC0007748FFF77FFF002867D10AA941F8040D734808F0EDFC8346754808F094FE044650
:204AE000002C4ED0606808F0A3F88345024607D045DD237AD80642D5099B9B5C2F2B3ED172
:204B00000999606808F0C2F8002838D1AB795A1E04D1D4F810B0BBF1000F16D101239340B2
:204B2000990704D5D4F814B0BBF1000F0DD15A0704D5D4F818B0BBF1000F06D11B0717D565
:204B4000D4F81CB0BBF1000F12D008AB00934A46534655495248D847237A5B0640F1148196
:204B60002046514A4E4900F0BDFA01231C460DE085214D4808F017FC0023012406E0246883
:204B8000AEE78421484808F00EFC01231C4204D18421454808F007FC2CE03378002B65D1AD
:204BA000AB7D180700F1A880697D089AC91100F0B480079B3C4C9A4200F0C3800132069904
:204BC000BDF8163040F0DE80B4F8A4209A4294BF00220122DFF8D090484608F004FDBDF8F5
:204BE0001620B4F8A430934204D94846D9F8A81008F061FD3378002B38D107F146012A4850
:204C000000F08CFC80B2A7F8440078BBC12333702CE0A3233370274A274B1A6026E06B68A2
:204C200023F07F4323F0FF0313B9C323337006E06B79032B03D12989404600F085F9288912
:204C400000F0A0FB38B1C46B076C00F03BFB14B113493846A0476B791149012B05D8CB7C04
:204C60005A0602D5404608F01AFA002733780D4C33B9002F00F08A80384600F039FB85E024
:204C8000C22B384602D100F01DFB7FE000F01AFB2378C32B12D100232370032113E000BF72
:204CA000304E00202A620020DC4E00203B4E00202C4E002005E9200084460020BF2B84BFF8
:204CC000A0232370022132782B89324808F04CFB314B1C68204607F0ABFF214602462D4819
:204CE00008F0E9FC03992B4800F018FC039982B2404600F085FF49E0284B93F90620002A82
:204D0000FFF652AF9B7D19073FF54EAF244BA1221A70244A204B1A606CE7002A3FF46DAF59
:204D20001E4C013218BF01222023204608F05BFCB4F8A420D4F8A8101F2A88BF20222046B8
:204D400056E7B4F8A4108A4204D38223A3710F221549F4E7BDF816308A1A9A4294BF002200
:204D600001220699204608F03EFC0799B4F8A430BDF816205B1AD4F8A8009A4228BF1A46C2
:204D80000144DCE7012225E70123F6E630780BB0BDE8F08F304E002084460020DC4E002083
:204DA0002A62002015E9200048E6200010B50446416001460D4808F043FD94F90830002B67
:204DC00013DA216A89B10B6A7BB10B686BB1084808F036FD206A074B0461C36050F8082B97
:204DE0000023BDE8104008F0B1BC10BD2C4E0020284E00208949200008B50C4B1A78A2B946
:204E000001220B481A7008F0FBFC0A4808F0F8FC094808F0F5FC09490948FFF7C7FF00F0DC
:204E2000E9FEBDE8084000F069BB08BD22620020244E00202C4E0020284E002025E9200031
:204E400060460020014808F0DEBC00BF2C4E002010B504460146044808F044FD2146BDE871
:204E60001040024808F0D9BC38460020884F002070B50646094808F0C6FC044600255CB17E
:204E8000314604F1180008F02FFC18B12046FFF7DFFF01352468F2E7284670BD884F00203B
:204EA0002DE9F041074611488846164608F0ABFC04460025B4B1394604F1180008F014FCD4
:204EC00070B194F82C30B3420AD13246414604F12D0007F0CBFC18B92046FFF7B9FF0135FF
:204EE0002468E7E72846BDE8F08100BF884F00202DE9F04107461348884608F084FC04469F
:204F00000025DCB11FB9261D464508D110E0394604F1180008F0E8FB0028F4D10CE03046BA
:204F200007F086FE41460246304607F09FFC18B92046FFF78DFF01352468E2E72846BDE8C8
:204F4000F08100BF884F0020F8B506460B480F4608F059FC0446002574B1314604F1180024
:204F600008F0C2FB30B1E38EBB4203D12046FFF76FFF01352468EFE72846F8BD884F0020DD
:204F80002DE9F04F0C46E1B0054688B1406807F04FFE06461322696805A807F0C5FE122E70
:204FA0000DDC64B105ABC6F113022146981904E0002900F09180132205A807F0B5FE0024A1
:204FC0002346452201210AA88DF8274008F0CCF923460122214635A808F0C6F905A935A872
:204FE00008F071FA05A807F023FE814625B195F80880C8F3001300E001233948039308F0F6
:2050000002FC04464FF0140A4FF00008002C63D0261D304607F00CFE814508D05ADA039B1B
:20502000002B57D004EB09031B792F2B52D14A46314605A807F02AFE00284BD100F066FAAB
:2050400004F1180100F024F90646002842D0A26B92FBFAF30AFB13230BB98DF82D30B3880C
:2050600006F1840BE386B3885A46ADF83030CDF8008030230AA935A8FFF7A4FC58B93DB1A4
:20508000009030235A460AA935A82F69B84702E080238DF82E309DF92E30002B09DBA16BEF
:2050A0000AA84B1CA36308F07EFAA36B23F07F43A36394F82C2004F12D010AA808F079F961
:2050C00006F146010AA800F029FAA6F84400304600F00EF9246899E761B0BDE8F08F00BF7E
:2050E000884F00202DE9F84F8B791646012B5AD192F90630002B56DBCB7C5B0653D5D1F8EF
:20510000A0A0BAF1000F43D04F6E002F37D1D1F860B091F80A80CD6D01F10B09504659462D
:20512000FFF7E6FE214808F0C9FB044690B3132DA8BF13252A4659460430254407F0C8FB9E
:20514000514604F118002F7108F0BEFA4246494684F82C8004F12D0007F0BAFB214614488B
:20516000E78608F06DFBA16B30464B1CA36308F01AFAA36B23F07F43A363BDE8F88F012F22
:2051800011D18A7A5046BDE8F84F0B31FFF788BEBDE8F88FA323B3713046BDE8F84F102285
:2051A000044908F088BABDE8F88F00BF38460020884F002036E92000014801F07FBA00BF77
:2051C0004446002070B5038806462BB15D2B0AD000230380032070BD8021194808F0D0FA31
:2051E0005D23338003E0882903D0822901D0012070BD00F0B1FD18B1124801F05FFAEFE76A
:2052000000F090FD04460D4654EA0503F4D0C9014FF47A720023E00141EA546107F048F955
:2052200000234FF4F0528B4208BF824204D350EA010302D1012000E010460146CDE700BF75
:20524000904F00204446002070B5FDF7ABFA0B4E0B493268821A0ED04FF47A73A2FB032333
:20526000D40944EA4364DD09D1E90023A4185D41C1E900453060D1E9000170BD8C4F0020FD
:20528000684900200021014801F000BA4446002070B5064609480D4608F010FB044658B113
:2052A0000023868080F824302946263008F00CFA2146034808F0C4FA204670BD5446002081
:2052C000A04F002010B5044660B1083000F01CFD2146054808F0A1FA2146BDE81040034870
:2052E00008F000BB10BD00BFA04F0020544600202DE9F041044600F12607B0F8442000F1FA
:205300004601384600F07CFC94F84650C5F3011575BB94F82430032B1AD873B9184B24612C
:20532000E36007F0FDFB40F2DD53B0FBF3F202FB130000F6B830206202E0236A5B0023628A
:20534000226A04F108000023BDE8F04108F0FEB9E66B3846D4F84080FFF78AFD2046FFF7E8
:20536000B1FF56B1294640463346BDE8F04118472046BDE8F041FFF7A5BFBDE8F08100BF68
:2053800015D1200010B50446044808F03CFA20B18388A34201D00068F9E710BDA04F0020C8
:2053A0002DE9F84F0A9F8B4691461E46FFF74AFD002480462546B8F1000F79D04DB13B68A7
:2053C0009D4205D3B4423EBF2C2309F80430013401353B689D4205D3B4423EBF3C2309F887
:2053E000043001343A686B1C934205D3B4423EBF2F2309F804300134D8F8040007F018FCE0
:2054000002353B6805EB000A9A4510D9D8F804205B1B711C002BACBFD318131C091B09EB31
:205420000400344A07F02EFE0444A64240D93B689A4505D3B4423EBF3E2309F80430013466
:20544000D8F80C300AF101053BB31B782BB33B689D4205D3B4423EBF3B2309F804300134CB
:20546000D8F80C0007F0E4FB0AF1020A3B680AEB00059D4211D9CAEB030AD8F80C30711CB2
:20548000BAF1000FA8BF5344091B09EB0400194A07F0F8FD0444A6420BD3B44203D93A6867
:2054A0002B1B934205D8404607F02FFE804682E74CB149462246584608F0FDF828215846B5
:2054C00007F08DFF09E045B18221584607F06BFF0F220949584608F0EEF8B8F1000F04D13C
:2054E0004FF0FF333B60BDE8F88F3B681E443E60BDE8F88F5EE7200048E6200008B507F03E
:205500000FFB014B188008BD3C5A0020024B1888013080B2188070473C5A0020F7B50446D7
:2055200001232160037100230B700F46016800790A7842EA80120A702068627901781201D4
:2055400002F030020A430270A27A206802F00F0102780A4302702268A179517022892168F0
:20556000120A8A7022682189D170A279002A00F07381224652F80A5B0435A17A8B4205D268
:2055800012F8011F013305F8011BF6E70121204607F0CAFD60B194F86A302A460093002116
:2055A00004F16B03012007F092FE0126054400E006460321204607F0B7FD48B1236C2A4617
:2055C00000933146636C032007F081FE032605440421204607F0A8FD58B194F824302A4667
:2055E0000093314604F12503042007F070FE042605440521204607F097FD38B12A463146A1
:205600000023052007F032FE052605440621204607F08AFD38B12A463146636E062007F0DE
:2056200025FE062605440721204607F07DFD40B12A463146B4F85030072007F017FE07266F
:2056400005440821204607F06FFD58B12F230193A36C2A4600933146E36C082007F047FEE4
:20566000082605440B21204607F05EFD58B12F230193E36D2A4600933146236E0B2007F063
:2056800036FE0B2605440C21204607F04DFD38B12A463146A38B0C2007F0E8FD0C26054407
:2056A0000E21204607F040FD38B12A463146236A0E2007F0DBFD0E2605440F21204607F0BD
:2056C00033FD68B126230193D4F894302A4600933146D4F898300F2007F009FE0F2605445B
:2056E0001121204607F020FD40B12A463146B4F86830112007F0BAFD1126054414212046E8
:2057000007F012FD58B126230193636D2A4600933146A36D142007F0EAFD14260544172176
:20572000204607F001FDE8B1636F94F878201B010AB143F00803B4F87A1000200909421CA4
:20574000490892B201D01046F9E7002A18BF024602F00F02134331462A46172007F086FD73
:20576000172605441B21204607F0DEFCF0B1D4F8803094F884201B010AB143F00803B4F822
:20578000861000200909421C490892B201D01046F9E7002A18BF024602F00F02134331462E
:2057A0002A461B2007F062FD1B2605441C21204607F0BAFC40B12A463146D4F88C301C2072
:2057C00007F054FD1C2605442321204607F0ACFC48B1236B2A4600933146636B232007F0A4
:2057E00076FD232605442721204607F09DFC48B1A36B2A4600933146E36B272007F067FDF5
:20580000272605443C21204607F08EFC38B12A46D4F8903031463C2007F028FD0544236806
:20582000EB1A3E2B11DCB4F8A43013B1FF2305F8013B2846B4F8A420D4F8A81007F0BEF85F
:20584000B4F8A400ED1B284407E0054A054B0025256028461A6000E0042003B0F0BD00BF49
:2058600060E92000844600202DE9F74F0F46044600219246AC2207F005F9276097F8008088
:205880004FEA981884F804803B78B8F1010FC3F3011363713A7802F00F02A2727B78A37145
:2058A000B978FB7843EA0123238101D0A04A02E0082A03D99F4AA04B1A6034E13E1D31466F
:2058C00004F10B0007F004F80822002104F1130007F0D8F8A37A00251E4407EB0A094FF0D3
:2058E000100B4E4580F01D81317801F0F003F02B14D10136F71BC7EB0A0A1FFA8AFABAF108
:20590000300F8ABF3023A4F8A4A0A4F8A430B4F8A4300020C4F8A860F05405E14FEA111E66
:20592000BEF10D0F01F00F0105D196F801E0B01C0EF10D0E0CE0BEF10E0F01BFB07896F842
:2059400001E000F20D1000EB0E2E14BF701CF01C0D2903D110F8011B0D3108E00E2906D163
:205960004378017803F20D1303EB012102304618B145C0F0D88075443C2D00F2D48004EBE9
:20598000D50305F0070208FA02FEDA7C0E2D4EEA0202DA7464D027D8062D00F0A18017D8AE
:2059A000032D78D00CD8012D40F0B3800A46082928BF0822014684F86A2004F16B0062E079
:2059C000042D51D0052D40F0A48084F89C8088E7082D71D062D30B2D65D00C2D40F099804E
:2059E00007F0B0FBA0837CE71B2D7DD025D8112D44D00BD80F2D40F08C802623009302461C
:205A00000B4604F1980004F194015DE0142D5ED0172D7ED107F096FBC0F3C00300F00702E8
:205A200084F878300BFA02F3A4F87A3020F00F0393400009E367606753E7232D26D006D895
:205A40001C2D66D107F07EFBC4F88C0049E7272D1CD03C2D5DD107F075FBC4F8900040E72D
:205A600007F070FB20623CE70A46082928BF0822014684F8242004F1250004E007F062FB34
:205A8000A4F868002DE706F023FF2AE72B4A2A4BA5201A6048E06064216422E707F052FBDE
:205AA000A4F850001DE72F23009302460B4604F1600004F15C0107E02F23009302460B466C
:205AC00004F14C0004F1480107F047FB09E72623009302460B4604F1580004F15401F3E738
:205AE00007F030FB6066FCE607F02CFBC0F3C00300F0070284F884300BFA02F3A4F88630D3
:205B000020F00F0393400009C4F88830C4F88000E7E6EB077FF5E5AE094A074B82201A6050
:205B200002E0002000E0802003B0BDE8F08F00BF8FE92000A6E9200084460020CBE9200048
:205B4000F2E92000F8B5028805463AB140F2C3139A4211D0002303800320F8BD11461046ED
:205B600002F0E4FC174B186043F21633038240F2C3132B800120F8BD134B1B788B42F6D168
:205B8000124B1B789B07F2D5114A124C164604F11007234603CBBB42106051601C4602F1E1
:205BA0000802F6D10C4B0D4A1B78094828339B5A33820023B3740A4B1A880A4B1968FEF771
:205BC0002BFFD4E7A44F002061720020A06F00203E5A0020A86A00209C630020A06A002078
:205BE000906A0020AC6F0020014B1868704700BFAC6F00200021014800F048BD8846002086
:205C000073B50E461446054610B94FF0FF340CE007F07DFD0028F8D02B8A054800932246DE
:205C20002B463146006808F00BFA204602B070BDA44F0020034BA3221A70034A034B1A600D
:205C4000704700BF2A62002043EA2000844600202DE9F0430446ADB000890D46FFF792FB9C
:205C6000254E0746002842D06279BAB9D4F8A080B8F1000F12D02389022101A807F074FB78
:205C8000FFF7B2FF8146FFF7AFFF014601A8FFF745FC494682B24046FFF7B2FF07F12601BC
:205CA000284607F011FD6379003318BF01232B75FFF72CFCE882A27A04F10B0105F1190013
:205CC00006F006FEA37A2B76D4F880306B62B4F886302B85636FEB62B4F87A301BB1202B25
:205CE00028BF202300E020232B86C22300E0A02333702DB0BDE8F0832A620020014B5B68CB
:205D0000184700BFC4E3200010B50446FFF7F6FFC4E904012146BDE81040014807F07DBD1C
:205D2000A84F002010B50B4807F06DFD044658B1FFF7E4FFD4E90423994208BF904206D277
:205D4000101A63EB010110BD4EF6602000E00020002110BDA84F0020F8B5FFF7CFFF064676
:205D600014480F4607F04FFD044608B90020F8BDD0E904239F4208BF9642F7D301460D4889
:205D800007F04BFD63680BB1204698470A4B9B689847084807F037FD0028E7D0D0E9044565
:205DA000FFF7ACFFA94208BFA0422CBF01200020F8BD00BFA84F0020C4E3200010B5074B19
:205DC0001A7852B9012206481A7007F019FD054B1B6813B1BDE81040184710BD2B620020B9
:205DE000A84F0020C4E32000F7B5184B04461B780BB9FFF7E3FF164807F005FD2146054634
:205E0000134807F00AFD124807F0FDFC002150B1D4E90467D0E904239F4208BF964203D35F
:205E200001460068F3E71CB12246094807F024FD074807F0E8FC854206D0064B9B6801938C
:205E400003B0BDE8F040184703B0F0BD2B620020A84F0020C4E320002DE9F3410E461F466D
:205E600002A9002341F8043D0446904607F01AFC054608B1019921B91C4B80221A701C4A3C
:205E800009E0D4F88800089B42199A4208D9174B8D221A70174A184B4FF0FF301A6022E0C1
:205EA000B8F1000F08D03FB12A46404406F010FDD4F888301D443D60A37D1B0701D40020B2
:205EC00011E0B4F8863094F88420D4F88010304607F0BDFB94F88430002BF0D05F2130469D
:205EE00007F061FA012002B0BDE8F0812A62002050EA20005AEA20008446002038B5474C93
:205F000007F016F8FCF728FC07F05EFC00F032FB0021434800F0BAFB00F0E2F8FCF700FEEB
:205F200007F02DFC00F0EAFBFCF7D0F92368022B07DD3C4A3C493D48FDF72AFD3C48FDF7F1
:205F400027FD2368022B09DD3749364A3748FDF71FFD384B38481968FDF71AFD2368022BA9
:205F600009DD31492F4A3148FDF712FD334B34481968FDF70DFD01F0A7F82368022B07DD27
:205F8000284A29492948FDF703FD2E48FDF700FD2368022B02DD2C4800F040FA2368022B64
:205FA00002DD2A48FDF7F4FC08222749284806F08FFC0021274800F069FB4FF0FF3002F0DD
:205FC00019F823680546022B07DD164A16491748FDF7DEFC2048FDF7DBFC2368022B05DD10
:205FE0000DB1A81C00E0284600F0C6F92368022B02DD1648FDF7CCFCFCF78CF9174807F0A3
:20600000B4FBFCF793FD00F0CDFA0446FCF794FD14F0FF0FF7D106F095FFF4E7B84600206C
:20602000A846002069EA200071E5200076E520006EEA2000F4E32000A3EA2000DCE32000F3
:20604000ADEA2000B7EA200042720020F4E62000986A002074470020CBEA200054E42000D0
:20606000F8B50388064615462BB14A2B15D0002303800320F8BD174807F0C5FB04462CB150
:20608000A168201D07F07CFB2468F8E7124B01221A704A2333800120F8BD8829FBD10D480F
:2060A00007F0B1FB0446002CF3D0231D9D420ED12146084807F0B1FB084B62691F681A608D
:2060C000A2691D460AB1E06990472F60E1E72468E9E700BFAC4F00202C620020B84F002015
:2060E00010B5064B002406481C7007F089FB2146BDE81040034800F0C9BA00BF2C6200208A
:20610000AC4F00209846002070B50446E3610B4B049D1B786561A26143B1094D094B2E682C
:20612000201D2B6007F02CFB2E6000E0A1602146BDE87040044807F083BB00BF2C62002060
:20614000B84F002098460020AC4F002013B5034C24680094FFF7D8FF02B010BDB84F002055
:2061600070B5094B05461B783BB1084C084B26680430236007F00DFB26602946BDE87040A7
:20618000044807F05DBB00BF2C620020B84F002098460020AC4F002010B5084B04461B7802
:2061A0001BB1043000F0CEF801E0C36003612146BDE81040024807F030BB00BF2C620020CC
:2061C000AC4F002010B50A4B04461B7823B1BDE81040043007F0E6BA064807F014FB18B1FC
:2061E000A04203D00068FAE7012010BD002010BD2C620020AC4F002010B50E4C236813B987
:206200000D4A136010BDFCF7CDFA216891E80C001A44131A8A6842B192E812002144091A9B
:206220008B4228BF0B469268F5E71844024B186010BD00BFB04F0020B44F0020014800F05B
:206240003DBA00BFA84600202DE9F8430388054633B1592B0BD0002303800320BDE8F88327
:20626000234A136059232B800120BDE8F883872924D08229F6D11E4F4FF00008B9463C6869
:206280000026002CEED0204607F0ACFA98B122468821E06800F0D2F958B9E060A3680EB173
:2062A000B36001E0C9F80030C4F80880FFF7A4FFE5E7FFF7C3FF2646A468E2E70C490020E2
:2062C0000B681BB90028CDD00B60CBE7DC68A24202D19B680120F4E700B10B609968002955
:2062E000C0D0C86882420ABF89680B469960F5E7B04F002010B50446FFF7A0FFE3680B4AD7
:206300004BB113683BB1A34203D1094A1268DA6007E09B68F6E7064B1B68E360136814608D
:20632000A360BDE81040FFF767BF00BFB04F0020B84F0020024B1868003018BF0120704798
:20634000B04F002010B50B4A04461368834206D18368136008E09A68944203D01346002B2E
:20636000F9D103E0A2689A60FFF746FF0023A360E36010BDB04F0020F7B5054628B922489A
:2063800003B0BDE8F040FDF703BB0388ABB94488ACB98388A3B9C4888CB9038983B94FF69E
:2063A000FF72418991420AD1837B427B017BC07B00901648FDF7ECFA24E0002400E01C4650
:2063C0002646AB19AF5D5B7803EB0727BFB24FB9002C09DB01D0013411E00D48FDF7D8FAF7
:2063E00001240CE0002C04DC2EB10A48FDF7D0FA01E04FF0FF3439460748FDF7C9FA023681
:20640000102EDED103B0F0BD09EB200018EB20002BEB20002CEB20002EEB200038B505461A
:2064200008B1002409E00948BDE83840FDF7B0BAE30702D40648FDF7ABFA295D054801341B
:20644000FDF7A6FA082CF3D138BD00BF51EB200060EB200062EB200010B50446FCF7ACF921
:2064600094E80C001344C01A024B98428CBF0020012010BDFEFFFF7F38B5836804460D46F3
:206480009BB10A4804600220A07304F10C0098470238012801D9832D05D121462046BDE8B0
:2064A000384000F005B80123A37338BDB84F00202DE9F8431C4A0446156889462B469046CD
:2064C0001A4E3768A34204D00BB11B68FAE7BDE8F88334B3A37BABB10023A37345B1A54245
:2064E00004D022468721284607F068F92D68F5E7A3683BB14C4505D034602A46832104F187
:206500000C009847D8F800309C4203D12268064B05E0134623B11A689442FAD122681A60CA
:206520003760BDE8F88300BFBC4F0020B84F0020002370B51D46094A01261370084A14681D
:2065400054B1E37B33B1A673E573002282212046FFF792FF2468F3E770BD00BF2F620020CE
:20656000BC4F0020024B1878421C1A70704700BF30620020064B8A221A70064A0023137086
:20658000054A1370054A1360054A1360704700BF306200202D6200202E620020BC4F0020F3
:2065A000B84F00202DE9F0411A4D2B780BB1FFF7BFFF194C22783AB3184E0C213378184F62
:2065C0005943781817F8018001334768806803F01F03013A3370227068B9124B1E689EB15C
:2065E0002B780BB1FFF7A4FF30463A46414607F0E5F83668F3E7B8F1810F04BF01238373C4
:206600003A46414607F0DAF82B7820781844BDE8F08100BF2F6200202E6200202D6200202E
:20662000C04F0020BC4F0020024A034B10781B78184470472E6200202F620020F0B50B4ED9
:206640003378202B0FD00A4C0C252478094F1C4404F01F046C4301333D19A86039556A60DA
:2066600033700020F0BD0120F0BD00BF2E6200202D620020C04F002038B5034C256807F0CF
:206680009DF8256038BD00BFB84F002030B40A4C0A4625682B4683420CD00BB11B68FAE7BC
:2066A00040B101210560817320608381812130BCFFF7E2BF30BC7047BC4F002038B1837B10
:2066C000013B012B9FBF024A0123C373137070472F62002010B5084C206858B10023236013
:2066E000816843689847236823B1BDE810401868FCF7A6B810BD00BF4051002082B0074B41
:2067000002AA42F8043DCD21934202D203F8011BFAE70348002102B0FFF7B8BF6272002044
:20672000BC46002038B5FCF707FA0D4C0D4B22780C4DCD2A06D09C4207D20134F7E7AC422D
:2067400003D201342378CD2BF9D0FCF7F5F9AC423DBF0448001B80B24FF6FF7038BD00BF07
:2067600062720020687A002070B5038805462BB1902B0BD000230380032070BD4FF4A0617C
:20678000134806F0FDFF90232B8003E0104807F009F808B9012070BDFFF7C4FF0D4C0E4BA1
:2067A00006461C1BA4B2A0420DD90C4B1B68002B09DD0B4A0B490C48FDF7EAF8224631469B
:2067C0000A48FDF7E5F8024806F0E3FFDBE700BF4451002062720020687A0020B84600202A
:2067E000D9EB2000DFEB200076E52000E3EB200070B5058804466C2D09D07E2D30D0002D1C
:2068000034D1FFF7AFFE1C4B18701C4B1D601B4D2E461B4807F0B2F8431C01D16C231DE060
:206820000A28164A07D02B687E2BF2DC5A1C3260144AD054EDE713680025591C1160114AA6
:206840002846D5540C4B1978FFF7F8FE0E4B2A4685211868FFF7F2FE20B97E23238009E0F2
:20686000852907D1054B00221A60D0E700230380032070BD012070BD5F7200205C510020ED
:2068800054510020B2620020B84F00200D2810B5014615D00B4C23782BB90B4807F05BF83F
:2068A00048B9012306E00A2805D1074807F053F808B1002323700548FFF700FF012010BD95
:2068C000002010BDB162002054510020CC46002008B505490548802207F036F8BDE8084095
:2068E00000210348FFF7D2BE3162002054510020CC4600200146014806F0A2BF6051002044
:2069000038B50546064806F07EFF04463CB1A068284002D0636803B198472468F6E738BD49
:2069200060510020014806F06BBF00BF605100202DE9F04106880546772E31D07E2E40D00B
:20694000002E4ED12B4CFFF70DFE266026462A4B2A4FDFF8B0801870236857F823204AB1EB
:20696000002108F80310936880209847336801333360F1E7224A1370772320E0214AD25613
:20698000002A12DB1B4A136801331360194B1C4A1B6812789A42F1DC1B4B1B68002BEBD00A
:2069A000194A00231360134AEFE7144A002052F82320114B1978FFF741FE30B97E232B8049
:2069C00014E00D4B1B788B4210D10A4B0D491A688B5C03F07F038B540B4A1368013313604B
:2069E000D0E7002303800320BDE8F0810120BDE8F08100BF6451002060720020C44400201C
:206A0000326300205B7200206851002010B40A4B0A491A780023934203DA51F82340A0429A
:206A200008D107490748CA5C62F07F02CA5410BCFFF744BE0133EEE732630020C44400201D
:206A40005B720020DC460020054A136843F004031360044B1B68906943EA002080B270478F
:206A600000700D4014700D4010B5184A136823F00C031360164B01221A601A68012AFCD1D9
:206A8000144B08221A60E322C3F8142203F505731946114A1368DB07FCD5104C10200023F6
:206AA0002268013802F0010243EA02034FEA43039BB2F5D1002BF1D0094A180A03F0FE0305
:206AC00010601360EF230B6010BD00BF00700D40A8200D4024860840648608409C8608406A
:206AE00014700D4008B5044806F0D8FEBDE80840024806F0D3BE00BFF8460020EC460020C3
:206B0000014806F013BF00BFEC46002038B50E4806F0D4FE0446A8B10C4806F0CFFE054643
:206B2000206028B92146084806F0DCFE284638BD00F0D0F905F19C01A5F8800005F1820029
:206B400000F054FA204638BDEC460020F846002010B501460446074806F0DAFE48B12168F7
:206B6000054806F0BFFE2146BDE81040014806F0B9BE10BDEC460020F846002010B501467A
:206B80000446094806F0C4FE68B12468B4F88010204600F015FA04F19C0104F18200BDE8AE
:206BA000104000F035BA10BDEC460020431C1FBF034B0C229B6802FB003008BF0020704700
:206BC0000447002030B1054B9B68C01A044B8010584370474FF0FF30704700BF04470020BC
:206BE000ABAAAAAA38B50D4D002818BF05460C4806F009FE044668B1211D284606F065FFA1
:206C000020B12046BDE83840FFF7DCBF204606F042FEEFE74FF0FF3038BD00BF64E5200092
:206C20008C51002008B5024606F0CEFE4AB1431C09D0064B1B5C106843FA00F000F00100FF
:206C400008BD104608BD002008BD00BF636300202DE9F8430646DFF85490002459F8245089
:206C60008DB1AF687FB13046FFF7ACFF0146284606F0A0FE014680462846FFF7D3FF0128C3
:206C800001D14046B8470134082CE7D13046FFF799FF044B00221A543146BDE8F8430248F8
:206CA00006F0BBBD636300208C5100205052002010B5074A1368072B9FBF5C1C1460054A65
:206CC00003609DBF816042F823000120002010BD705200205052002038B505460B4806F084
:206CE00092FDFFF76FFF0146284606F063FE044601462846FFF796FF28B921462846BDE8B0
:206D0000384006F088BE204638BD00BF8C5100202DE9F8433B4D0646002918BF0D462846C2
:206D200099469046FFF75EFF431C074633D1364806F0C4FD044610BB4946404603F080FBCE
:206D400000285BD0FFF74EFF471C014635D0FFF72DFF2E4B02465F5C78B3002F4CD05C542A
:206D60004AE0002C44D0BB4242DB104606F093FD02466ABB002C41D02046FFF769FF2146DE
:206D8000234806F05DFD2046FFF71CFF29460746201D06F097FE3946304606F00BFE0446FF
:206DA0007268002105F06EFE012322463146194806F015FE2046BDE8F883154806F023FD11
:206DC000002402462746DFF84490DFF84880D0E71046FFF7F7FE19F80030002BC5D118F886
:206DE00000100029BDD0C80748BF01334910F8E713B114461F46B8E71446BDE70020BDE8A6
:206E0000F88300BF64E5200004470020536300208C5100206363002070B50A4604460D4699
:206E200000230146054806F0DAFD064600232A462146034806F0D3FD304670BD63630020EE
:206E4000536300200A4601230146014806F0C7BD536300200A4600230146014806F0BFBD93
:206E60005363002010B507490B88834208DB064C80B222880244181A08802280012010BD2E
:206E8000002010BDB25F0020B45F0020014B1880704700BFB25F0020004870477452002031
:206EA000014B1888704700BFB25F0020034A044B10781B781844C0B2704700BF736300204E
:206EC000B45F002008B5FFF7F1FF014B184408BD7452002070B50D4D0D4C2A782388064618
:206EE0001344802B0FDC0B4905F0F2FC2B781E44FFF7E8FF22880146304605F0E9FC2878AB
:206F00002388184470BD002070BD00BF73630020B25F00207452002008B5FFF7C7FF024B5E
:206F20001B88184480B208BDB25F002038B50146FFF7F2FF4318802B11DC0A4A013880B25D
:206F4000541803B2002B04DBD55C0138E55480B2F7E7054B01201A781144197038BD00205D
:206F600038BD00BF745200207363002038B5094D094C1A220021094805F084FD29462046F0
:206F800006F0A0FD294604F10800BDE8384006F099BD00BF64E520001872002028720020FD
:206FA000044A00231380044A1380044A1370FFF7DDBF00BFB45F0020B25F00207363002070
:206FC00038B50C460546FFF7EBFF802C28BF802422462946034805F07BFC034B20461C8032
:206FE00038BD00BF74520020B25F002010B50C461A22054905F06CFC2046BDE8104010223B
:20700000024905F065BC00BF287200201872002010B50C461A220146044805F059FC214655
:20702000BDE810401022024805F052BC2872002018720020024B23F810100120704700BF59
:2070400028720020014B33F8100070472872002008B5044B0D3803EBC00006F033FD012038
:2070600008BD00BF18720020024B0D3803EBC000704700BF187200200149024806F025BD16
:2070800064E520002072002070B505460D480E4606F0B9FB044698B1012D08D1A3681BB999
:2070A000204606F0F8FBF5E73046984705E0002DF6D16368002BF3D098470028F0D070BDCA
:2070C00070BD00BFF4520020054B10B51B689847044B5B689847BDE81040034B5B68184791
:2070E0006CE32000DCE32000F4E32000084808B5FFF736F80748FFF7EFFD38B1037A01463C
:207100005B080372034806F086FCF6E708BD00BFFC680020104700200146014806F096BCA0
:2071200010470020F8B531F0020307460E46154631D10146184806F089FC044650B9034649
:20714000092239461448FFF7E3FD044618B306F0D6FCA080FBF726FB237A20602B44102B7C
:20716000A8BF1023022E18BFED012372204614BFADB24FF4006506F0B0FC002814BF0A22E2
:2071800019225543A388C2F1640101FB03556423B5FBF3F5A580F8BD1047002038B50546DD
:2071A0000420FFF74FFF294684B20F4806F04EFC034658B9092229460B48FFF7A9FD024600
:2071C00080B1C48006F09BFC908038BD0A2224B25443B0F906105A2202FB0142642192FB82
:2071E000F1F2C28038BD00BF1047002010B50748FFF772FD044640B121460448FFF70CFED8
:207200002146024806F007FCF4E710BD1047002010B500210548FFF74BFDBDE8104000231C
:20722000034A4FF4E1310348FEF790BF10470020ED702000FC680020F8B5FBF7B3FA04460F
:207240000F4F00250D2007EB0516FFF70DFF314606F03BFC78B10720FFF7F4FE337B834220
:2072600001D00020F8BDB068201AB0F5206F8CBF00200120F8BD0135102DE3D1F1E700BFE3
:20728000B853002070B5164E00240D20FFF7ECFE06EB041106F019FC114D611C10B910291B
:2072A0000C46F2D14C1E05EB0111A1F110063CB120391022304605F00BFB013C3146F4E72D
:2072C0000720FFF7BFFE2873FBF76CFAA8600D20FFF7CAFEBDE870400146014806F0F2BB66
:2072E000B853002030B591B0054600F063F84FF6FF73984202D14FF0FF3052E04022002120
:20730000684605F0BFFB284B1A782AB901221A70FFF79AFB254B18707DB10720FFF792FE1D
:2073200058B9224C23780BB90123237021780720FFF780FE237801332370FFF79DFE6A46E1
:20734000C1B21B4806F04CFCFFF796FE28B1FF238DF800308DF8013006E00E20FFF784FE9D
:207360000146684606F0AEFB0D20FFF77DFE014602A806F0A7FBFFF7A5FD0E90FFF790FD99
:207380000F90684606F018FD04464DB1FFF7CEFD0028B0D0FFF780FD0146684606F055FD34
:2073A000204611B030BD00BF756300207463002045702000014B1888704700BF2448002048
:2073C0002DE9F041012986B006460F46144640F3838003A906F083FD0A2203A904F11000D6
:2073E00005F076FA9DF811300BB1B51C02E0B378F51CA37602AA01A903A806F039FC9DF8CD
:207400001380B8F1000F23D0029B23B16A7815F8023B03EB0223B8F1020FA38309D130494B
:20742000204606F04FFB6B78237015F8023B637014E0B8F1030F11D105F108021346611EAA
:2074400013F8010DAB4201F8010FF9D1154605E02349204606F036FBA4F81C809DF81580B8
:20746000B8F1000F2BD0019B53B16A7815F8023B03EB0223029A9BB2E3831AB9A38301E051
:20748000A38BE383B8F1020F0AD1154904F1080006F018FB6B78237215F8023B637215E0D3
:2074A000B8F1030F12D105F108021346E11D13F8010D9D4201F8010FF9D1154606E008497A
:2074C00004F1080006F0FEFAA4F81E80A81B3B1A8742E363A56300DA002006B0BDE8F08192
:2074E00064E52000014B1B6A184700BF6CE32000014B5B6A184700BF6CE3200007B5FFF775
:20750000CFFC03281BD00F4B9B689847002816DB0E20FFF7A9FD0C4906F0D7FA58B1FFF750
:207520008BFE60B9FFF7AEFE084B9B68019303B05DF804EB1847FFF79FFD0028EFD103B09A
:207540005DF804FBD0E3200042720020F4E3200070B590F82D400122012CD4BF03340524DC
:20756000054602FA04F4FFF76FFA013CB0FBF4F12B4601FB1401034A05F10C00BDE870407A
:20758000FEF7E4BD0D7620002DE9F0470D4614468B68804693E8C000506B92F82C9006F0CD
:2075A0003CF96868FFF7D4FAA968144806F09AF92946134806F096F9606B06F024F940B1EE
:2075C000002384F82C3084F82D302046FFF7C0FF0BE004F10C00FEF7DFFD2146094806F051
:2075E0001CF92146084806F07DF94B46424639463046BDE8F04706F0A2BA00BF20470020D1
:207600002C47002018550020384700202DE9F043044685B0002800F0DE80406B06F0F3F8E1
:20762000002800F0D8804068FFF7A8FA6B490D20FFF70EFD01210820FFF7FCFC684B5B680A
:207640009847002879DBFFF727FC664E85787768FFF722FC8046FFF75FFC01464046B8472F
:20766000FFF70AFDD6F818800746C04700284FD15FB1B3680193FFF74FFC019B984748B197
:2076800002280CBF0125042543E0F369984700283ED1EEE70FB100253BE0FBF7BBF88146D0
:2076A000FBF74AFA6FF00C07C9EB0707FBF7B2F8C742FBD4C04748B1FBF7ACF880466FF031
:2076C0001407FBF739FAC8EB070709E0F36998470028F1D1434B5B6998470028ECD015E091
:2076E000FBF798F8C742FBD4F369984770B13D4B032103A81B699847032809D19DF80E3042
:207700005D1B18BF0125002DC5D002E0022500E00125606B06F077F8064600285BD007212C
:20772000706806F041F907460720FFF78BFC874205D0304606F0AFF8EEE70525E9E7B268B6
:20774000002A48D0032D42D8DFE805F002200E45032384F82D3094F82C302246013384F86D
:207760002C30314600200EE0002384F82D3094F82C300133DBB284F82C30127A9A421FD84C
:20778000224631460220FFF7FFFE24E094F82D300133DBB2052B83BF002384F82D3094F84D
:2077A0002C3084F82D3084BF013384F82C3094F82C10137A994203D3224631460120E2E776
:2077C0002046FFF7C5FE706806F0E8F803E0224631462846D7E705B0BDE8F083427200204D
:2077E000D0E320006CE320002DE9F04107460E208846FFF739FC464B05461A78454C22B9B2
:2078000001221A70FFF720F92070237813B9414B01221A70217807204B1C2370FFF70AFCC6
:2078200001210C20FFF706FC3B4805F0ECFF044640B12946201D06F048F9E0B9204606F08C
:207840002AF8F4E7354806F039F8044648B32946201D06F037F9002304F130000322606340
:2078600084F82C3084F82D20236305F0C9FF2146294805F0E5FF606B05F0F7FF072810DCA2
:20788000274806F01BF8054698B9606B05F0EDFF38B92146204805F0C0FF21461F4806F0F0
:2078A00021F841463846BDE8F0410123042206F046B91C4806F002F8A86008B3FFF726F969
:2078C0006860C8B10620AE68FFF7BCFBC0B208B1307201E00823337286E880012946606BD7
:2078E00005F0AEFF606B05F08EFF85420DD12046BDE8F041FFF72CBEA9680A4805F0F2FF8F
:207900002946074805F0EEFFBFE7BDE8F08100BF8963002078630020185500203847002019
:207920002C4700202047002008B5064805F0B6FF054805F0B3FF054805F0B0FFBDE80840A6
:20794000FFF7D0B82C470020204700203847002005289ABF024B33F810000020704700BF4C
:20796000B65F002010B5044C0C220021204605F089F80023238110BDB65F00202DE9FF476D
:20798000234C244D04F108030FCB8DE80F002B786F4694F80780BBB11F493A22A2710A8869
:2079A000D21A92B20A80A2F128010812207103F128002044C3F1040361712C3A011D1844B9
:2079C00004F0FCFF00232B70144805F01CFF0646DFF844A09EB1D6F80490B9F1000F09D044
:2079E000BAF800302A782C3B22449BB2383241463846C847304605F04EFF0646EAE7064B45
:207A00002E701E80FFF7AEFF04B0BDE8F08700BFA06A00209C630020906A0020EC55002034
:207A2000F8B52C4B2C4C1B7904F11806E371237E04F10805FF2B08D195E80F0086E80F0000
:207A40003146284600F0C4FB1BE02F46B646234A3B4603CB7345106051601F4602F108022F
:207A6000F6D196E80F0085E80F001C4B1C4D03F110062A4618685968083303C2B34215465B
:207A8000F7D1184D2B78BBB117493A22A2710A88D21A92B20A80A2F128010812207103F134
:207AA00028002044C3F1040361712C3A011D184404F084FF00232B702B7881222833E518FA
:207AC000E25400236B706B8006F003FBC0436880F8BD00BF24690020A06A0020C25F00201C
:207AE000B86A00209C630020906A002038B504460B480D4605F087FE50B10379A34204D17D
:207B000043799D4206D0FF2B04D005F0C4FEF3E7012038BD8368002BFAD09847002038BD7B
:207B2000F05500200146014805F08ABEF05500202DE9F74F4A4D81462B7888469246494C16
:207B400063B12833E35C3A2B0FD1474A002313802B7003B0BDE8F04FFFF704BFA3793A2B7F
:207B600003D194F92830002BEFDA404B404E1B6B9847404A3746934606F1100E334603CB9E
:207B80007345106051601E4602F10802F6D1364E2878338830339BB2B3F5A06F88BF4FF414
:207BA000A063338032882F4B121A04EB40001946303A3030019304F001FF6022297822701A
:207BC000002262706280019B3A2211B183F8282000E09A71284A234B1279E271228972B9D3
:207BE0005A8962B99A8952B9DA8942B91A8A32B95A8A22B99A8A12B9DB8A002BA5D01F4B4F
:207C00000FCB87E80F009BF80030FF2B05D1B9F1040F9AD1B8F1020F97D11649174800F051
:207C2000D7FA2F78504607F12803E21804F8039082F8018006F053FA33882C37283BE0519A
:207C40001A1263712B78227128331C440023638006F03FFAC043608003B0BDE8F08F00BF85
:207C60009C630020A06A0020906A002004E42000B86A0020C25F002024690020A86A002037
:207C80002DE9F8431D4689469046174C602323703A23A371154B04F118061B790027E3711F
:207CA0002B1D1A12227101461022304663716770678004F00DFE314604F1080000F088FA57
:207CC0000B4B2C351B7828331E1903F8049086F80180778006F0FDF9C043064B70801D8076
:207CE000BDE8F84300F048BCA06A0020246900209C630020906A002008B50448FFF712FF90
:207D0000BDE808400248FFF70DBF00BF44470020504700201FB50C46074B01469B696846D8
:207D2000984710222146684604F0A0FDB0FA80F0400904B010BD00BF04E4200070B5064670
:207D40000A480D4605F05FFD044668B11DB9204605F0A1FDF8E7A3689E42F8D12946204693
:207D6000FFF7D8FF0028F2D0204670BD7857002030B505460C460E4B85B05B696846984769
:207D800021462846FFF7DAFF694604462846FFF7D5FF11232CB1844205D0013B03D0646986
:207DA000F8E7204602E0031B5842584105B030BD04E420002DE9F843904606460F469946FA
:207DC000FFF7BCFF414604463046FFF7B7FF0546B8F1000F0CD058B902464FF0FF334146CF
:207DE0003046FFF7E7FF054610B90020BDE8F8837CB9164805F062FD04460028F5D000239C
:207E000043610146124805F01BFD124A1368013313600822B918A660C4F8049004F10C0040
:207E200004F056FD39463046FFF7A2FF50B1D4F81480394665613046FFF79AFF18B9C4F837
:207E4000148000E065612046BDE8F8835C47002078570020F455002008B5054B00220548CB
:207E60001A6005F01BFDBDE80840034805F0C8BCF45500205C47002078570020F8B50546B7
:207E8000154805F0C0FC0446144E24B3204605F002FD63680746ABB90F4805F0B4FC28B1A6
:207EA00043699C4202D005F0F6FCF8E721460A4805F0B3FC21460A4805F014FD3368013BAD
:207EC000336006E05A1C04D0AB428CBF5B1B002363603C46D9E7F8BD78570020F4550020FC
:207EE0005C47002070B50C4805F08DFC04460B4D84B1204605F0CFFC06462146064805F0D5
:207F00008CFC2146064805F0EDFC2B683446013B2B60EDE770BD00BF78570020F45500205A
:207F20005C4700202DE9F341154D009104460E4690461F460195034620220321114806F0D4
:207F40001EF801282B4616D12A6804F11001107020462A68023250F8044B884242F8044B5C
:207F6000F9D11868089B86744361099B80F813800777836100E0002002B0BDE8F08100BFDE
:207F800080570020206A002070B506460C4B0D4C03F1600523602068A8420FD203781BB9A1
:207FA000236820332360F6E7827C3146D208023004F05CFC0028F3D1012070BD002070BD2F
:207FC000206A00208057002013B5084C802300930194034620220321054805F0D0FF08B998
:207FE000206800E0002002B010BD00BF845700203C69002030B548F2FE040C4B0C4A03F139
:208000006001136013688B420CD21D783DB1451C02D09D7C854202D15D88A54203D020330B
:208020001360EFE70023184630BD00BF3C6900208457002037B5104D8023009304460346F8
:208040000195122205210D4805F099FF01282B460ED12A6804F11001107020462A68023291
:2080600050F8044B884242F8044BF9D1186800E0002003B030BD00BF7C570020C069002031
:20808000F7B5214C80230093054603460E4617460194202203211D4805F071FF012830D15D
:2080A0002A46236805F1100118702368023352F8040B8A4243F8040BF9D12068C77416B9AB
:2080C0000123037505E0002303753146183005F06EFB23680E480121997402234370FF225E
:2080E0000023027043808380C38003818372C17202736B7B4373EB89C381FFF79BFF206855
:2081000000E0002003B0F0BD845700203C690020D25F002013B5084C8023009301940346BE
:2081200012220521054805F02AFF08B9206800E0002002B010BD00BF7C570020C0690020B7
:2081400038B50546C8B10D48022200244270FF230122C27244808480C480048184720373A9
:208160000370EB7B43732B8AC381FFF7D3FF044A106008B105F02BFF2C7038BDD25F002037
:208180007C57002070B50F4C0F4B2646236003F160052068A8420ED2037843B1037D33B99D
:2081A0001830FEF759F910B13068FFF7C9FF236820332360EDE700F081F9BDE870400348DA
:2081C00005F0E7BA845700203C690020806A00202DE9F84F48F2FE030A8805469A420F4699
:2081E00023D00A78FF2A20D01C490024A04689469B461B4A0A6002F1600AD9F800605645DA
:2082000017D233786BB1B37C012B0AD173885B4507D0B11C384605F0F4FE80459CBF34463A
:2082200080462036C9F80060E7E70120FFF7E2FE04464CB92C806C80AC80EC802C816C8123
:20824000AC81EC81BDE8F88FA31C123453F8042BA34245F8042BF9D1BDE8F88F8457002097
:208260003C69002070B5094EB0684508FEF7ECFB0446FEF7E9FB2402B268A4B22044B0FBB4
:20828000F2F302FB1300284470BD00BF2469002073B5304C00F0E4FD00F084F86022002160
:2082A0002D4804F0EFFB0021F822204604F0EAFB2A4B20221A702A4B18221A704FF4A06331
:2082C00023604EF6602340262671A360FFF7CAFF4FF47A73236148F2FE03314640F2FF26D8
:2082E0000025E06025751F4C2A46238065802B46A580E580204601950095FFF713FE204623
:20830000194905F068FE294601222046FFF7B8FE4FF480732046E38126806580A580E580E7
:2083200025816581A581FFF785FE4FF40073204626806580A580E58025816581A581E381CB
:20834000FFF778FE09480C2102B0BDE8704005F017BA00BF24690020206A00201D6A0020A9
:208360001C6A0020D25F0020986A0020806A002038B5094C69B1B2F59A6F0ADC074D2280F2
:208380002860074804F01AFB042000F011FB00F0F3F80023238038BDB46F0020A86F0020CD
:2083A000D06A002008B5044805F078FABDE80840024805F025BA00BF68470020C85700201B
:2083C00038B505460A4805F01EFA044678B1AC4209D12146064805F020FA2146BDE8384083
:2083E000044805F07FBA204605F055FAEDE738BDC85700206847002038B5054608B9002069
:2084000038BD094805F0FFF904460028F7D010222946201D04F02AFA18B1204605F03BFAA1
:20842000F2E7204638BD00BFC8570020F8B50E46054608B90020F8BDFFF7DEFF044648B90A
:20844000104805F03BFA04460028F3D001460E4805F003FA2B46251D03F110072A46186828
:208460005968083303C2BB421546F7D136B1314604F1140005F09BF9002300E0012323776A
:208480002046F8BD68470020C857002038B50A4805F0B9F9044600255CB1251D284600F0B1
:2084A00017FD08B1437C23B9204605F0F4F90446F2E7284638BD00BFC857002010B50A4871
:2084C00005F0A1F9044670B1237F43B904F11400FDF7C2FF18B12046FFF772FFEFE7204674
:2084E00005F0D9F9EEE710BDC857002013B5044601460120FEF7C8FD38B92046084BDB68B3
:20850000019302B0BDE810401847064B00241C80054B1C70FFF726FA204602B010BD00BF1A
:20852000F4E32000906A00209C63002010B5144600F0F8F918B1024BC4611B68836110BD9C
:20854000B84F0020002108B50846FEF79DFD024618B902210548FEF78FF8054A002313802F
:20856000044A1370BDE80840FFF7FCB974470020906A00209C63002070B5394E88B03388DF
:20858000002B6AD0B3F5A06F42D8364C238B73B9638B63B9A38B53B9E38B43B9238C33B900
:2085A000638C23B9A38C13B9E38C002B30D02E4D6B6B984718B92D4B308018702CE0237EFD
:2085C000FF2B22D02A48FFF7FFFC10B100F052F843E02B6C04A8984708BB2548FFF7D4FCE6
:2085E000002836D1224805F055FD044618B9FFF74DFF68B12FE005F04BFD60BB2046EB6C01
:208600009847204605F048FD02E00020FFF76EFF164A002333801370FFF7A4F91DE004AC7D
:20862000204600F055FC054678B9214602A805F0DDFC0623019500932A46012302A9204641
:2086400000F01CFC05460028E2D0284600F038FCDCE7074CE4E70446E2E708B070BD00BFC3
:20866000906A0020A06A002004E420009C630020B86A002010B5064C238843B1012000F086
:2086800097F923881BB1BDE81040FFF775BF10BD906A002038B50446238810463BB140F277
:2086A0004332934215D000232380032038BDFDF759FF214B40211870204805F061F800F066
:2086C000E9F81F4B5B68984740F243332380012038BD022902D1FFF7CDFFF5E70BD80129A3
:2086E000F2D10028F0D0174B1860052000F060F9FFF742FFE8E787290CD1134B002103F57D
:2087000080729D692033A84208BF23F8101C9342F7D3D9E78829D7D1084B984202D105F069
:2087200041F8D1E7094B9842CED105F03BF80028CAD0FFF727FDDBE761720020CC5700207F
:2087400004E42000A86F0020B86F0020806A0020074B1B680BB1283302E0064B1B6818339C
:20876000186820B15A68044B1978FDF785BF7047B06F0020A86F00206172002037B5124B65
:20878000124D1C782B796A79C4EB032313449BB2ADF80630BDF806302022184405F1080183
:2087A00080B205F07AFCBDF8062004F1280192B2294405F072FC10B140BA80B201E04FF6FC
:2087C000FF7003B030BD00BF9C630020A06A0020F8B52C4F2C4D97F800E02C4C0EF1280CC7
:2087E0000CEB05035E780220F600207007360021864243DB0CEB0003EA18EB5C012B05D074
:2088000002D3632B06D015E0013034E052780232104430E001B120701D4B9B6B9847B8B18B
:208820003B782278283313441D446B7813440233237025E003F0C003802B04D0C02B09D0D8
:20884000402B15D102E051B1207008E001B120700120F8BD01B120702B7EFF2BF8D00EEB7D
:208860000002283202210420FFF762F90220F8BD537802331844C0B20121B9E701B120705B
:208880000020F8BD9C630020A06A00209E63002004E4200008B5FFF7FBFCFFF72DFA00F0DA
:2088A0006FFC074B4FF480621A800023194605481A182033B3F5807F1182F9D108BD00BF60
:2088C000E25F0020B86F002070B5134B1D780DB3124E05F12701328891424FF0000105DBED
:2088E00031801970BDE87040FFF73CB80C4C197094F8283004F12800283AA371521B4119E0
:2089000004F05CF833885B1B9BB23380283B1A122271637170BD00BF9C630020906A0020C3
